{
  "contractName": "Dex",
  "abi": [
    {
      "anonymous": false,
      "inputs": [
        {
          "indexed": true,
          "internalType": "address",
          "name": "previousOwner",
          "type": "address"
        },
        {
          "indexed": true,
          "internalType": "address",
          "name": "newOwner",
          "type": "address"
        }
      ],
      "name": "OwnershipTransferred",
      "type": "event"
    },
    {
      "inputs": [
        {
          "internalType": "bytes32",
          "name": "ticker",
          "type": "bytes32"
        },
        {
          "internalType": "address",
          "name": "tokenAddress",
          "type": "address"
        }
      ],
      "name": "addToken",
      "outputs": [],
      "stateMutability": "nonpayable",
      "type": "function"
    },
    {
      "inputs": [
        {
          "internalType": "address",
          "name": "",
          "type": "address"
        },
        {
          "internalType": "bytes32",
          "name": "",
          "type": "bytes32"
        }
      ],
      "name": "balances",
      "outputs": [
        {
          "internalType": "uint256",
          "name": "",
          "type": "uint256"
        }
      ],
      "stateMutability": "view",
      "type": "function",
      "constant": true
    },
    {
      "inputs": [
        {
          "internalType": "uint256",
          "name": "amount",
          "type": "uint256"
        },
        {
          "internalType": "bytes32",
          "name": "ticker",
          "type": "bytes32"
        }
      ],
      "name": "deposit",
      "outputs": [],
      "stateMutability": "nonpayable",
      "type": "function"
    },
    {
      "inputs": [
        {
          "internalType": "bytes32",
          "name": "",
          "type": "bytes32"
        },
        {
          "internalType": "uint256",
          "name": "",
          "type": "uint256"
        },
        {
          "internalType": "uint256",
          "name": "",
          "type": "uint256"
        }
      ],
      "name": "orderBook",
      "outputs": [
        {
          "internalType": "uint256",
          "name": "id",
          "type": "uint256"
        },
        {
          "internalType": "address",
          "name": "trader",
          "type": "address"
        },
        {
          "internalType": "bool",
          "name": "buyOrder",
          "type": "bool"
        },
        {
          "internalType": "bytes32",
          "name": "ticker",
          "type": "bytes32"
        },
        {
          "internalType": "uint256",
          "name": "amount",
          "type": "uint256"
        },
        {
          "internalType": "uint256",
          "name": "price",
          "type": "uint256"
        }
      ],
      "stateMutability": "view",
      "type": "function",
      "constant": true
    },
    {
      "inputs": [],
      "name": "owner",
      "outputs": [
        {
          "internalType": "address",
          "name": "",
          "type": "address"
        }
      ],
      "stateMutability": "view",
      "type": "function",
      "constant": true
    },
    {
      "inputs": [],
      "name": "renounceOwnership",
      "outputs": [],
      "stateMutability": "nonpayable",
      "type": "function"
    },
    {
      "inputs": [
        {
          "internalType": "uint256",
          "name": "",
          "type": "uint256"
        }
      ],
      "name": "tokenList",
      "outputs": [
        {
          "internalType": "bytes32",
          "name": "",
          "type": "bytes32"
        }
      ],
      "stateMutability": "view",
      "type": "function",
      "constant": true
    },
    {
      "inputs": [
        {
          "internalType": "bytes32",
          "name": "",
          "type": "bytes32"
        }
      ],
      "name": "tokenMapping",
      "outputs": [
        {
          "internalType": "bytes32",
          "name": "ticker",
          "type": "bytes32"
        },
        {
          "internalType": "address",
          "name": "tokenAddress",
          "type": "address"
        }
      ],
      "stateMutability": "view",
      "type": "function",
      "constant": true
    },
    {
      "inputs": [
        {
          "internalType": "address",
          "name": "newOwner",
          "type": "address"
        }
      ],
      "name": "transferOwnership",
      "outputs": [],
      "stateMutability": "nonpayable",
      "type": "function"
    },
    {
      "inputs": [
        {
          "internalType": "uint256",
          "name": "amount",
          "type": "uint256"
        },
        {
          "internalType": "bytes32",
          "name": "ticker",
          "type": "bytes32"
        }
      ],
      "name": "withdraw",
      "outputs": [],
      "stateMutability": "nonpayable",
      "type": "function"
    },
    {
      "inputs": [
        {
          "internalType": "bytes32",
          "name": "ticker",
          "type": "bytes32"
        },
        {
          "internalType": "enum Dex.Side",
          "name": "side",
          "type": "uint8"
        }
      ],
      "name": "getOrderBook",
      "outputs": [
        {
          "components": [
            {
              "internalType": "uint256",
              "name": "id",
              "type": "uint256"
            },
            {
              "internalType": "address",
              "name": "trader",
              "type": "address"
            },
            {
              "internalType": "bool",
              "name": "buyOrder",
              "type": "bool"
            },
            {
              "internalType": "bytes32",
              "name": "ticker",
              "type": "bytes32"
            },
            {
              "internalType": "uint256",
              "name": "amount",
              "type": "uint256"
            },
            {
              "internalType": "uint256",
              "name": "price",
              "type": "uint256"
            }
          ],
          "internalType": "struct Dex.Order[]",
          "name": "",
          "type": "tuple[]"
        }
      ],
      "stateMutability": "view",
      "type": "function",
      "constant": true
    }
  ],
  "bytecode": "0x608060405234801561000f575f80fd5b5061002c61002161003160201b60201c565b61003860201b60201c565b6100f9565b5f33905090565b5f805f9054906101000a900473ffffffffffffffffffffffffffffffffffffffff169050815f806101000a81548173ffffffffffffffffffffffffffffffffffffffff021916908373ffffffffffffffffffffffffffffffffffffffff1602179055508173ffffffffffffffffffffffffffffffffffffffff168173ffffffffffffffffffffffffffffffffffffffff167f8be0079c531659141344cd1fd0a4f28419497f9722a3daafe3b4186f6b6457e060405160405180910390a35050565b6114af806101065f395ff3fe608060405234801561000f575f80fd5b50600436106100a7575f3560e01c80639776aacf1161006f5780639776aacf146101695780639ead722214610185578063a8d2021a146101b5578063ba58ea68146101d1578063c9630cb014610201578063f2fde38b1461021d576100a7565b80630bb431b6146100ab5780631f14df69146100e0578063667cb4ba14610110578063715018a6146101415780638da5cb5b1461014b575b5f80fd5b6100c560048036038101906100c09190610c57565b610239565b6040516100d796959493929190610d1e565b60405180910390f35b6100fa60048036038101906100f59190610da7565b6102c2565b6040516101079190610de5565b60405180910390f35b61012a60048036038101906101259190610dfe565b6102e2565b604051610138929190610e29565b60405180910390f35b610149610321565b005b610153610334565b6040516101609190610e50565b60405180910390f35b610183600480360381019061017e9190610e69565b61035b565b005b61019f600480360381019061019a9190610ea7565b61041a565b6040516101ac9190610ed2565b60405180910390f35b6101cf60048036038101906101ca9190610eeb565b61043a565b005b6101eb60048036038101906101e69190610f4c565b6106ce565b6040516101f891906110e7565b60405180910390f35b61021b60048036038101906102169190610eeb565b6107f4565b005b61023760048036038101906102329190611107565b6109fb565b005b6004602052825f5260405f20602052815f5260405f20818154811061025c575f80fd5b905f5260205f2090600502015f925092505050805f015490806001015f9054906101000a900473ffffffffffffffffffffffffffffffffffffffff16908060010160149054906101000a900460ff16908060020154908060030154908060040154905086565b6003602052815f5260405f20602052805f5260405f205f91509150505481565b6001602052805f5260405f205f91509050805f015490806001015f9054906101000a900473ffffffffffffffffffffffffffffffffffffffff16905082565b610329610a7d565b6103325f610afb565b565b5f805f9054906101000a900473ffffffffffffffffffffffffffffffffffffffff16905090565b610363610a7d565b60405180604001604052808381526020018273ffffffffffffffffffffffffffffffffffffffff1681525060015f8481526020019081526020015f205f820151815f01556020820151816001015f6101000a81548173ffffffffffffffffffffffffffffffffffffffff021916908373ffffffffffffffffffffffffffffffffffffffff160217905550905050600282908060018154018082558091505060019003905f5260205f20015f90919091909150555050565b60028181548110610429575f80fd5b905f5260205f20015f915090505481565b805f73ffffffffffffffffffffffffffffffffffffffff1660015f8381526020019081526020015f206001015f9054906101000a900473ffffffffffffffffffffffffffffffffffffffff1673ffffffffffffffffffffffffffffffffffffffff16036104dc576040517f08c379a00000000000000000000000000000000000000000000000000000000081526004016104d39061118c565b60405180910390fd5b8260035f3373ffffffffffffffffffffffffffffffffffffffff1673ffffffffffffffffffffffffffffffffffffffff1681526020019081526020015f205f8481526020019081526020015f2054101561056b576040517f08c379a0000000000000000000000000000000000000000000000000000000008152600401610562906111f4565b60405180910390fd5b6105ca8360035f3373ffffffffffffffffffffffffffffffffffffffff1673ffffffffffffffffffffffffffffffffffffffff1681526020019081526020015f205f8581526020019081526020015f2054610bbc90919063ffffffff16565b60035f3373ffffffffffffffffffffffffffffffffffffffff1673ffffffffffffffffffffffffffffffffffffffff1681526020019081526020015f205f8481526020019081526020015f208190555060015f8381526020019081526020015f206001015f9054906101000a900473ffffffffffffffffffffffffffffffffffffffff1673ffffffffffffffffffffffffffffffffffffffff1663a9059cbb33856040518363ffffffff1660e01b8152600401610688929190611212565b6020604051808303815f875af11580156106a4573d5f803e3d5ffd5b505050506040513d601f19601f820116820180604052508101906106c89190611263565b50505050565b606060045f8481526020019081526020015f205f8360018111156106f5576106f461128e565b5b81526020019081526020015f20805480602002602001604051908101604052809291908181526020015f905b828210156107e8578382905f5260205f2090600502016040518060c00160405290815f8201548152602001600182015f9054906101000a900473ffffffffffffffffffffffffffffffffffffffff1673ffffffffffffffffffffffffffffffffffffffff1673ffffffffffffffffffffffffffffffffffffffff1681526020016001820160149054906101000a900460ff16151515158152602001600282015481526020016003820154815260200160048201548152505081526020019060010190610721565b50505050905092915050565b805f73ffffffffffffffffffffffffffffffffffffffff1660015f8381526020019081526020015f206001015f9054906101000a900473ffffffffffffffffffffffffffffffffffffffff1673ffffffffffffffffffffffffffffffffffffffff1603610896576040517f08c379a000000000000000000000000000000000000000000000000000000000815260040161088d9061118c565b60405180910390fd5b60015f8381526020019081526020015f206001015f9054906101000a900473ffffffffffffffffffffffffffffffffffffffff1673ffffffffffffffffffffffffffffffffffffffff166323b872dd3330866040518463ffffffff1660e01b8152600401610906939291906112bb565b6020604051808303815f875af1158015610922573d5f803e3d5ffd5b505050506040513d601f19601f820116820180604052508101906109469190611263565b506109a68360035f3373ffffffffffffffffffffffffffffffffffffffff1673ffffffffffffffffffffffffffffffffffffffff1681526020019081526020015f205f8581526020019081526020015f2054610bd190919063ffffffff16565b60035f3373ffffffffffffffffffffffffffffffffffffffff1673ffffffffffffffffffffffffffffffffffffffff1681526020019081526020015f205f8481526020019081526020015f2081905550505050565b610a03610a7d565b5f73ffffffffffffffffffffffffffffffffffffffff168173ffffffffffffffffffffffffffffffffffffffff1603610a71576040517f08c379a0000000000000000000000000000000000000000000000000000000008152600401610a6890611360565b60405180910390fd5b610a7a81610afb565b50565b610a85610be6565b73ffffffffffffffffffffffffffffffffffffffff16610aa3610334565b73ffffffffffffffffffffffffffffffffffffffff1614610af9576040517f08c379a0000000000000000000000000000000000000000000000000000000008152600401610af0906113c8565b60405180910390fd5b565b5f805f9054906101000a900473ffffffffffffffffffffffffffffffffffffffff169050815f806101000a81548173ffffffffffffffffffffffffffffffffffffffff021916908373ffffffffffffffffffffffffffffffffffffffff1602179055508173ffffffffffffffffffffffffffffffffffffffff168173ffffffffffffffffffffffffffffffffffffffff167f8be0079c531659141344cd1fd0a4f28419497f9722a3daafe3b4186f6b6457e060405160405180910390a35050565b5f8183610bc99190611413565b905092915050565b5f8183610bde9190611446565b905092915050565b5f33905090565b5f80fd5b5f819050919050565b610c0381610bf1565b8114610c0d575f80fd5b50565b5f81359050610c1e81610bfa565b92915050565b5f819050919050565b610c3681610c24565b8114610c40575f80fd5b50565b5f81359050610c5181610c2d565b92915050565b5f805f60608486031215610c6e57610c6d610bed565b5b5f610c7b86828701610c10565b9350506020610c8c86828701610c43565b9250506040610c9d86828701610c43565b9150509250925092565b610cb081610c24565b82525050565b5f73ffffffffffffffffffffffffffffffffffffffff82169050919050565b5f610cdf82610cb6565b9050919050565b610cef81610cd5565b82525050565b5f8115159050919050565b610d0981610cf5565b82525050565b610d1881610bf1565b82525050565b5f60c082019050610d315f830189610ca7565b610d3e6020830188610ce6565b610d4b6040830187610d00565b610d586060830186610d0f565b610d656080830185610ca7565b610d7260a0830184610ca7565b979650505050505050565b610d8681610cd5565b8114610d90575f80fd5b50565b5f81359050610da181610d7d565b92915050565b5f8060408385031215610dbd57610dbc610bed565b5b5f610dca85828601610d93565b9250506020610ddb85828601610c10565b9150509250929050565b5f602082019050610df85f830184610ca7565b92915050565b5f60208284031215610e1357610e12610bed565b5b5f610e2084828501610c10565b91505092915050565b5f604082019050610e3c5f830185610d0f565b610e496020830184610ce6565b9392505050565b5f602082019050610e635f830184610ce6565b92915050565b5f8060408385031215610e7f57610e7e610bed565b5b5f610e8c85828601610c10565b9250506020610e9d85828601610d93565b9150509250929050565b5f60208284031215610ebc57610ebb610bed565b5b5f610ec984828501610c43565b91505092915050565b5f602082019050610ee55f830184610d0f565b92915050565b5f8060408385031215610f0157610f00610bed565b5b5f610f0e85828601610c43565b9250506020610f1f85828601610c10565b9150509250929050565b60028110610f35575f80fd5b50565b5f81359050610f4681610f29565b92915050565b5f8060408385031215610f6257610f61610bed565b5b5f610f6f85828601610c10565b9250506020610f8085828601610f38565b9150509250929050565b5f81519050919050565b5f82825260208201905092915050565b5f819050602082019050919050565b610fbc81610c24565b82525050565b610fcb81610cd5565b82525050565b610fda81610cf5565b82525050565b610fe981610bf1565b82525050565b60c082015f8201516110035f850182610fb3565b5060208201516110166020850182610fc2565b5060408201516110296040850182610fd1565b50606082015161103c6060850182610fe0565b50608082015161104f6080850182610fb3565b5060a082015161106260a0850182610fb3565b50505050565b5f6110738383610fef565b60c08301905092915050565b5f602082019050919050565b5f61109582610f8a565b61109f8185610f94565b93506110aa83610fa4565b805f5b838110156110da5781516110c18882611068565b97506110cc8361107f565b9250506001810190506110ad565b5085935050505092915050565b5f6020820190508181035f8301526110ff818461108b565b905092915050565b5f6020828403121561111c5761111b610bed565b5b5f61112984828501610d93565b91505092915050565b5f82825260208201905092915050565b7f546f6b656e20646f6573206e6f742065786973740000000000000000000000005f82015250565b5f611176601483611132565b915061118182611142565b602082019050919050565b5f6020820190508181035f8301526111a38161116a565b9050919050565b7f42616c616e6365206e6f742073756666696369656e74000000000000000000005f82015250565b5f6111de601683611132565b91506111e9826111aa565b602082019050919050565b5f6020820190508181035f83015261120b816111d2565b9050919050565b5f6040820190506112255f830185610ce6565b6112326020830184610ca7565b9392505050565b61124281610cf5565b811461124c575f80fd5b50565b5f8151905061125d81611239565b92915050565b5f6020828403121561127857611277610bed565b5b5f6112858482850161124f565b91505092915050565b7f4e487b71000000000000000000000000000000000000000000000000000000005f52602160045260245ffd5b5f6060820190506112ce5f830186610ce6565b6112db6020830185610ce6565b6112e86040830184610ca7565b949350505050565b7f4f776e61626c653a206e6577206f776e657220697320746865207a65726f20615f8201527f6464726573730000000000000000000000000000000000000000000000000000602082015250565b5f61134a602683611132565b9150611355826112f0565b604082019050919050565b5f6020820190508181035f8301526113778161133e565b9050919050565b7f4f776e61626c653a2063616c6c6572206973206e6f7420746865206f776e65725f82015250565b5f6113b2602083611132565b91506113bd8261137e565b602082019050919050565b5f6020820190508181035f8301526113df816113a6565b9050919050565b7f4e487b71000000000000000000000000000000000000000000000000000000005f52601160045260245ffd5b5f61141d82610c24565b915061142883610c24565b92508282039050818111156114405761143f6113e6565b5b92915050565b5f61145082610c24565b915061145b83610c24565b9250828201905080821115611473576114726113e6565b5b9291505056fea2646970667358221220ff18495631225b46a9272c2da7388e07f051d4528a5887d2e675d49e98e204ab64736f6c63430008140033",
  "immutableReferences": {},
  "source": "// SPDX-License-Identifier: MIT\r\npragma solidity >0.6.0 <0.9.0;\r\npragma experimental ABIEncoderV2;\r\nimport \"./wallet.sol\";\r\n\r\ncontract Dex is Wallet {\r\n\r\n    enum Side{\r\n        BUY,\r\n        SEL\r\n    }\r\n\r\n    struct Order{\r\n        uint id;\r\n        address trader;\r\n        bool buyOrder;\r\n        bytes32 ticker;\r\n        uint amount;\r\n        uint price;\r\n    }\r\n\r\n    mapping(bytes32 => mapping(uint => Order[])) public orderBook; // uint will be 0 or 1 and 0 is BUY, 1 is SELL from enum and that point to \r\n                                                            // it's own orderbook for each asset\r\n\r\n    function getOrderBook(bytes32 ticker, Side side) view public returns(Order[] memory) {\r\n        return orderBook[ticker][uint(side)];\r\n    }\r\n\r\n    // function createLimitOrder() {\r\n\r\n    // }\r\n\r\n}",
  "sourcePath": "C:\\Users\\lane\\Desktop\\dex\\contracts\\dex.sol",
  "compiler": {
    "name": "solc",
    "version": "0.8.20+commit.a1b79de6.Emscripten.clang"
  },
  "schemaVersion": "3.4.14",
  "updatedAt": "2023-06-03T16:43:34.175Z",
  "networkType": "ethereum",
  "devdoc": {
    "kind": "dev",
    "methods": {
      "owner()": {
        "details": "Returns the address of the current owner."
      },
      "renounceOwnership()": {
        "details": "Leaves the contract without owner. It will not be possible to call `onlyOwner` functions. Can only be called by the current owner. NOTE: Renouncing ownership will leave the contract without an owner, thereby disabling any functionality that is only available to the owner."
      },
      "transferOwnership(address)": {
        "details": "Transfers ownership of the contract to a new account (`newOwner`). Can only be called by the current owner."
      }
    },
    "version": 1
  },
  "userdoc": {
    "kind": "user",
    "methods": {},
    "version": 1
  }
}