{
  "contractName": "MinterPouserTest",
  "abi": [
    {
      "inputs": [
        {
          "internalType": "string",
          "name": "name",
          "type": "string"
        },
        {
          "internalType": "string",
          "name": "symbol",
          "type": "string"
        },
        {
          "internalType": "uint256",
          "name": "cap_",
          "type": "uint256"
        }
      ],
      "stateMutability": "nonpayable",
      "type": "constructor"
    },
    {
      "anonymous": false,
      "inputs": [
        {
          "indexed": true,
          "internalType": "address",
          "name": "owner",
          "type": "address"
        },
        {
          "indexed": true,
          "internalType": "address",
          "name": "spender",
          "type": "address"
        },
        {
          "indexed": false,
          "internalType": "uint256",
          "name": "value",
          "type": "uint256"
        }
      ],
      "name": "Approval",
      "type": "event"
    },
    {
      "anonymous": false,
      "inputs": [
        {
          "indexed": false,
          "internalType": "address",
          "name": "account",
          "type": "address"
        }
      ],
      "name": "Paused",
      "type": "event"
    },
    {
      "anonymous": false,
      "inputs": [
        {
          "indexed": true,
          "internalType": "bytes32",
          "name": "role",
          "type": "bytes32"
        },
        {
          "indexed": true,
          "internalType": "bytes32",
          "name": "previousAdminRole",
          "type": "bytes32"
        },
        {
          "indexed": true,
          "internalType": "bytes32",
          "name": "newAdminRole",
          "type": "bytes32"
        }
      ],
      "name": "RoleAdminChanged",
      "type": "event"
    },
    {
      "anonymous": false,
      "inputs": [
        {
          "indexed": true,
          "internalType": "bytes32",
          "name": "role",
          "type": "bytes32"
        },
        {
          "indexed": true,
          "internalType": "address",
          "name": "account",
          "type": "address"
        },
        {
          "indexed": true,
          "internalType": "address",
          "name": "sender",
          "type": "address"
        }
      ],
      "name": "RoleGranted",
      "type": "event"
    },
    {
      "anonymous": false,
      "inputs": [
        {
          "indexed": true,
          "internalType": "bytes32",
          "name": "role",
          "type": "bytes32"
        },
        {
          "indexed": true,
          "internalType": "address",
          "name": "account",
          "type": "address"
        },
        {
          "indexed": true,
          "internalType": "address",
          "name": "sender",
          "type": "address"
        }
      ],
      "name": "RoleRevoked",
      "type": "event"
    },
    {
      "anonymous": false,
      "inputs": [
        {
          "indexed": true,
          "internalType": "address",
          "name": "from",
          "type": "address"
        },
        {
          "indexed": true,
          "internalType": "address",
          "name": "to",
          "type": "address"
        },
        {
          "indexed": false,
          "internalType": "uint256",
          "name": "value",
          "type": "uint256"
        }
      ],
      "name": "Transfer",
      "type": "event"
    },
    {
      "anonymous": false,
      "inputs": [
        {
          "indexed": false,
          "internalType": "address",
          "name": "account",
          "type": "address"
        }
      ],
      "name": "Unpaused",
      "type": "event"
    },
    {
      "inputs": [],
      "name": "CHANGER_ROLE",
      "outputs": [
        {
          "internalType": "bytes32",
          "name": "",
          "type": "bytes32"
        }
      ],
      "stateMutability": "view",
      "type": "function"
    },
    {
      "inputs": [],
      "name": "DEFAULT_ADMIN_ROLE",
      "outputs": [
        {
          "internalType": "bytes32",
          "name": "",
          "type": "bytes32"
        }
      ],
      "stateMutability": "view",
      "type": "function"
    },
    {
      "inputs": [],
      "name": "MINTER_ROLE",
      "outputs": [
        {
          "internalType": "bytes32",
          "name": "",
          "type": "bytes32"
        }
      ],
      "stateMutability": "view",
      "type": "function"
    },
    {
      "inputs": [],
      "name": "PAUSER_ROLE",
      "outputs": [
        {
          "internalType": "bytes32",
          "name": "",
          "type": "bytes32"
        }
      ],
      "stateMutability": "view",
      "type": "function"
    },
    {
      "inputs": [
        {
          "internalType": "address",
          "name": "owner",
          "type": "address"
        },
        {
          "internalType": "address",
          "name": "spender",
          "type": "address"
        }
      ],
      "name": "allowance",
      "outputs": [
        {
          "internalType": "uint256",
          "name": "",
          "type": "uint256"
        }
      ],
      "stateMutability": "view",
      "type": "function"
    },
    {
      "inputs": [
        {
          "internalType": "address",
          "name": "spender",
          "type": "address"
        },
        {
          "internalType": "uint256",
          "name": "amount",
          "type": "uint256"
        }
      ],
      "name": "approve",
      "outputs": [
        {
          "internalType": "bool",
          "name": "",
          "type": "bool"
        }
      ],
      "stateMutability": "nonpayable",
      "type": "function"
    },
    {
      "inputs": [
        {
          "internalType": "address",
          "name": "account",
          "type": "address"
        }
      ],
      "name": "balanceOf",
      "outputs": [
        {
          "internalType": "uint256",
          "name": "",
          "type": "uint256"
        }
      ],
      "stateMutability": "view",
      "type": "function"
    },
    {
      "inputs": [
        {
          "internalType": "uint256",
          "name": "amount",
          "type": "uint256"
        }
      ],
      "name": "burn",
      "outputs": [],
      "stateMutability": "nonpayable",
      "type": "function"
    },
    {
      "inputs": [
        {
          "internalType": "address",
          "name": "account",
          "type": "address"
        },
        {
          "internalType": "uint256",
          "name": "amount",
          "type": "uint256"
        }
      ],
      "name": "burnFrom",
      "outputs": [],
      "stateMutability": "nonpayable",
      "type": "function"
    },
    {
      "inputs": [],
      "name": "decimals",
      "outputs": [
        {
          "internalType": "uint8",
          "name": "",
          "type": "uint8"
        }
      ],
      "stateMutability": "view",
      "type": "function"
    },
    {
      "inputs": [
        {
          "internalType": "address",
          "name": "spender",
          "type": "address"
        },
        {
          "internalType": "uint256",
          "name": "subtractedValue",
          "type": "uint256"
        }
      ],
      "name": "decreaseAllowance",
      "outputs": [
        {
          "internalType": "bool",
          "name": "",
          "type": "bool"
        }
      ],
      "stateMutability": "nonpayable",
      "type": "function"
    },
    {
      "inputs": [
        {
          "internalType": "bytes32",
          "name": "role",
          "type": "bytes32"
        }
      ],
      "name": "getRoleAdmin",
      "outputs": [
        {
          "internalType": "bytes32",
          "name": "",
          "type": "bytes32"
        }
      ],
      "stateMutability": "view",
      "type": "function"
    },
    {
      "inputs": [
        {
          "internalType": "bytes32",
          "name": "role",
          "type": "bytes32"
        },
        {
          "internalType": "uint256",
          "name": "index",
          "type": "uint256"
        }
      ],
      "name": "getRoleMember",
      "outputs": [
        {
          "internalType": "address",
          "name": "",
          "type": "address"
        }
      ],
      "stateMutability": "view",
      "type": "function"
    },
    {
      "inputs": [
        {
          "internalType": "bytes32",
          "name": "role",
          "type": "bytes32"
        }
      ],
      "name": "getRoleMemberCount",
      "outputs": [
        {
          "internalType": "uint256",
          "name": "",
          "type": "uint256"
        }
      ],
      "stateMutability": "view",
      "type": "function"
    },
    {
      "inputs": [
        {
          "internalType": "bytes32",
          "name": "role",
          "type": "bytes32"
        },
        {
          "internalType": "address",
          "name": "account",
          "type": "address"
        }
      ],
      "name": "grantRole",
      "outputs": [],
      "stateMutability": "nonpayable",
      "type": "function"
    },
    {
      "inputs": [
        {
          "internalType": "bytes32",
          "name": "role",
          "type": "bytes32"
        },
        {
          "internalType": "address",
          "name": "account",
          "type": "address"
        }
      ],
      "name": "hasRole",
      "outputs": [
        {
          "internalType": "bool",
          "name": "",
          "type": "bool"
        }
      ],
      "stateMutability": "view",
      "type": "function"
    },
    {
      "inputs": [
        {
          "internalType": "address",
          "name": "spender",
          "type": "address"
        },
        {
          "internalType": "uint256",
          "name": "addedValue",
          "type": "uint256"
        }
      ],
      "name": "increaseAllowance",
      "outputs": [
        {
          "internalType": "bool",
          "name": "",
          "type": "bool"
        }
      ],
      "stateMutability": "nonpayable",
      "type": "function"
    },
    {
      "inputs": [],
      "name": "name",
      "outputs": [
        {
          "internalType": "string",
          "name": "",
          "type": "string"
        }
      ],
      "stateMutability": "view",
      "type": "function"
    },
    {
      "inputs": [],
      "name": "paused",
      "outputs": [
        {
          "internalType": "bool",
          "name": "",
          "type": "bool"
        }
      ],
      "stateMutability": "view",
      "type": "function"
    },
    {
      "inputs": [
        {
          "internalType": "bytes32",
          "name": "role",
          "type": "bytes32"
        },
        {
          "internalType": "address",
          "name": "account",
          "type": "address"
        }
      ],
      "name": "renounceRole",
      "outputs": [],
      "stateMutability": "nonpayable",
      "type": "function"
    },
    {
      "inputs": [
        {
          "internalType": "bytes32",
          "name": "role",
          "type": "bytes32"
        },
        {
          "internalType": "address",
          "name": "account",
          "type": "address"
        }
      ],
      "name": "revokeRole",
      "outputs": [],
      "stateMutability": "nonpayable",
      "type": "function"
    },
    {
      "inputs": [
        {
          "internalType": "bytes4",
          "name": "interfaceId",
          "type": "bytes4"
        }
      ],
      "name": "supportsInterface",
      "outputs": [
        {
          "internalType": "bool",
          "name": "",
          "type": "bool"
        }
      ],
      "stateMutability": "view",
      "type": "function"
    },
    {
      "inputs": [],
      "name": "symbol",
      "outputs": [
        {
          "internalType": "string",
          "name": "",
          "type": "string"
        }
      ],
      "stateMutability": "view",
      "type": "function"
    },
    {
      "inputs": [],
      "name": "totalSupply",
      "outputs": [
        {
          "internalType": "uint256",
          "name": "",
          "type": "uint256"
        }
      ],
      "stateMutability": "view",
      "type": "function"
    },
    {
      "inputs": [
        {
          "internalType": "address",
          "name": "to",
          "type": "address"
        },
        {
          "internalType": "uint256",
          "name": "amount",
          "type": "uint256"
        }
      ],
      "name": "transfer",
      "outputs": [
        {
          "internalType": "bool",
          "name": "",
          "type": "bool"
        }
      ],
      "stateMutability": "nonpayable",
      "type": "function"
    },
    {
      "inputs": [
        {
          "internalType": "address",
          "name": "from",
          "type": "address"
        },
        {
          "internalType": "address",
          "name": "to",
          "type": "address"
        },
        {
          "internalType": "uint256",
          "name": "amount",
          "type": "uint256"
        }
      ],
      "name": "transferFrom",
      "outputs": [
        {
          "internalType": "bool",
          "name": "",
          "type": "bool"
        }
      ],
      "stateMutability": "nonpayable",
      "type": "function"
    },
    {
      "inputs": [
        {
          "internalType": "address",
          "name": "to",
          "type": "address"
        },
        {
          "internalType": "uint256",
          "name": "amount",
          "type": "uint256"
        }
      ],
      "name": "mint",
      "outputs": [],
      "stateMutability": "nonpayable",
      "type": "function"
    },
    {
      "inputs": [],
      "name": "cap",
      "outputs": [
        {
          "internalType": "uint256",
          "name": "",
          "type": "uint256"
        }
      ],
      "stateMutability": "view",
      "type": "function"
    },
    {
      "inputs": [
        {
          "internalType": "uint256",
          "name": "change_cap",
          "type": "uint256"
        }
      ],
      "name": "changer",
      "outputs": [],
      "stateMutability": "nonpayable",
      "type": "function"
    },
    {
      "inputs": [],
      "name": "pause",
      "outputs": [],
      "stateMutability": "nonpayable",
      "type": "function"
    },
    {
      "inputs": [],
      "name": "unpause",
      "outputs": [],
      "stateMutability": "nonpayable",
      "type": "function"
    }
  ],
  "bytecode": "0x608060405234801562000010575f80fd5b5060405162003c6f38038062003c6f8339818101604052810190620000369190620005dc565b82828160059081620000499190620008a1565b5080600690816200005b9190620008a1565b5050505f60075f6101000a81548160ff0219169083151502179055505f8111620000bc576040517f08c379a0000000000000000000000000000000000000000000000000000000008152600401620000b390620009e3565b60405180910390fd5b80600881905550620000e65f801b620000da620001b260201b60201c565b620001b960201b60201c565b620001277f9f2df0fed2c77648de5860a4cc508cd0818c85b8b8a1ab4ceeef8d981c8956a66200011b620001b260201b60201c565b620001b960201b60201c565b620001687f65d7a28e3265b37a6474929f336521b332c1681b933f6cb9f3376673440d862a6200015c620001b260201b60201c565b620001b960201b60201c565b620001a97f6310cf9c937bcad92df0897b8ab11d37ff788bec126c5807fb57fb0423e3f40d6200019d620001b260201b60201c565b620001b960201b60201c565b50505062000a03565b5f33905090565b620001cb8282620001cf60201b60201c565b5050565b620001e182826200020b60201b60201c565b620002068160015f8581526020019081526020015f20620002f660201b90919060201c565b505050565b6200021d82826200032b60201b60201c565b620002f25760015f808481526020019081526020015f205f015f8373ffffffffffffffffffffffffffffffffffffffff1673ffffffffffffffffffffffffffffffffffffffff1681526020019081526020015f205f6101000a81548160ff02191690831515021790555062000297620001b260201b60201c565b73ffffffffffffffffffffffffffffffffffffffff168173ffffffffffffffffffffffffffffffffffffffff16837f2f8788117e7eff1d82e926ec794901d17c78024a50270940304540a733656f0d60405160405180910390a45b5050565b5f62000323835f018373ffffffffffffffffffffffffffffffffffffffff165f1b6200038e60201b60201c565b905092915050565b5f805f8481526020019081526020015f205f015f8373ffffffffffffffffffffffffffffffffffffffff1673ffffffffffffffffffffffffffffffffffffffff1681526020019081526020015f205f9054906101000a900460ff16905092915050565b5f620003a18383620003ff60201b60201c565b620003f557825f0182908060018154018082558091505060019003905f5260205f20015f9091909190915055825f0180549050836001015f8481526020019081526020015f208190555060019050620003f9565b5f90505b92915050565b5f80836001015f8481526020019081526020015f20541415905092915050565b5f604051905090565b5f80fd5b5f80fd5b5f80fd5b5f80fd5b5f601f19601f8301169050919050565b7f4e487b71000000000000000000000000000000000000000000000000000000005f52604160045260245ffd5b620004808262000438565b810181811067ffffffffffffffff82111715620004a257620004a162000448565b5b80604052505050565b5f620004b66200041f565b9050620004c4828262000475565b919050565b5f67ffffffffffffffff821115620004e657620004e562000448565b5b620004f18262000438565b9050602081019050919050565b5f5b838110156200051d57808201518184015260208101905062000500565b5f8484015250505050565b5f6200053e6200053884620004c9565b620004ab565b9050828152602081018484840111156200055d576200055c62000434565b5b6200056a848285620004fe565b509392505050565b5f82601f83011262000589576200058862000430565b5b81516200059b84826020860162000528565b91505092915050565b5f819050919050565b620005b881620005a4565b8114620005c3575f80fd5b50565b5f81519050620005d681620005ad565b92915050565b5f805f60608486031215620005f657620005f562000428565b5b5f84015167ffffffffffffffff8111156200061657620006156200042c565b5b620006248682870162000572565b935050602084015167ffffffffffffffff8111156200064857620006476200042c565b5b620006568682870162000572565b92505060406200066986828701620005c6565b9150509250925092565b5f81519050919050565b7f4e487b71000000000000000000000000000000000000000000000000000000005f52602260045260245ffd5b5f6002820490506001821680620006c257607f821691505b602082108103620006d857620006d76200067d565b5b50919050565b5f819050815f5260205f209050919050565b5f6020601f8301049050919050565b5f82821b905092915050565b5f600883026200073c7fffffffffffffffffffffffffffffffffffffffffffffffffffffffffffffffff82620006ff565b620007488683620006ff565b95508019841693508086168417925050509392505050565b5f819050919050565b5f62000789620007836200077d84620005a4565b62000760565b620005a4565b9050919050565b5f819050919050565b620007a48362000769565b620007bc620007b38262000790565b8484546200070b565b825550505050565b5f90565b620007d2620007c4565b620007df81848462000799565b505050565b5b818110156200080657620007fa5f82620007c8565b600181019050620007e5565b5050565b601f82111562000855576200081f81620006de565b6200082a84620006f0565b810160208510156200083a578190505b620008526200084985620006f0565b830182620007e4565b50505b505050565b5f82821c905092915050565b5f620008775f19846008026200085a565b1980831691505092915050565b5f62000891838362000866565b9150826002028217905092915050565b620008ac8262000673565b67ffffffffffffffff811115620008c857620008c762000448565b5b620008d48254620006aa565b620008e18282856200080a565b5f60209050601f83116001811462000917575f841562000902578287015190505b6200090e858262000884565b8655506200097d565b601f1984166200092786620006de565b5f5b82811015620009505784890151825560018201915060208501945060208101905062000929565b868310156200097057848901516200096c601f89168262000866565b8355505b6001600288020188555050505b505050505050565b5f82825260208201905092915050565b7f45524332304361707065643a20636170206973203000000000000000000000005f82015250565b5f620009cb60158362000985565b9150620009d88262000995565b602082019050919050565b5f6020820190508181035f830152620009fc81620009bd565b9050919050565b61325e8062000a115f395ff3fe608060405234801561000f575f80fd5b50600436106101e3575f3560e01c806370a082311161010d578063a9059cbb116100a0578063dd62ed3e1161006f578063dd62ed3e146105a3578063e63ab1e9146105d3578063f49fdc18146105f1578063fab4fcc51461060d576101e3565b8063a9059cbb14610509578063ca15c87314610539578063d539139314610569578063d547741f14610587576101e3565b806391d14854116100dc57806391d148541461046d57806395d89b411461049d578063a217fddf146104bb578063a457c2d7146104d9576101e3565b806370a08231146103e757806379cc6790146104175780638456cb59146104335780639010d07c1461043d576101e3565b8063313ce567116101855780633f4ba83a116101545780633f4ba83a1461038757806340c10f191461039157806342966c68146103ad5780635c975abb146103c9576101e3565b8063313ce567146102ff578063355274ea1461031d57806336568abe1461033b5780633950935114610357576101e3565b806318160ddd116101c157806318160ddd1461026557806323b872dd14610283578063248a9ca3146102b35780632f2ff15d146102e3576101e3565b806301ffc9a7146101e757806306fdde0314610217578063095ea7b314610235575b5f80fd5b61020160048036038101906101fc91906120d1565b61062b565b60405161020e9190612116565b60405180910390f35b61021f6106a4565b60405161022c91906121b9565b60405180910390f35b61024f600480360381019061024a9190612266565b610734565b60405161025c9190612116565b60405180910390f35b61026d610756565b60405161027a91906122b3565b60405180910390f35b61029d600480360381019061029891906122cc565b61075f565b6040516102aa9190612116565b60405180910390f35b6102cd60048036038101906102c8919061234f565b61078d565b6040516102da9190612389565b60405180910390f35b6102fd60048036038101906102f891906123a2565b6107a9565b005b6103076107ca565b60405161031491906123fb565b60405180910390f35b6103256107d2565b60405161033291906122b3565b60405180910390f35b610355600480360381019061035091906123a2565b6107db565b005b610371600480360381019061036c9190612266565b61085e565b60405161037e9190612116565b60405180910390f35b61038f610894565b005b6103ab60048036038101906103a69190612266565b61090e565b005b6103c760048036038101906103c29190612414565b61098c565b005b6103d16109a0565b6040516103de9190612116565b60405180910390f35b61040160048036038101906103fc919061243f565b6109b5565b60405161040e91906122b3565b60405180910390f35b610431600480360381019061042c9190612266565b6109fb565b005b61043b610a1b565b005b6104576004803603810190610452919061246a565b610a95565b60405161046491906124b7565b60405180910390f35b610487600480360381019061048291906123a2565b610ac1565b6040516104949190612116565b60405180910390f35b6104a5610b24565b6040516104b291906121b9565b60405180910390f35b6104c3610bb4565b6040516104d09190612389565b60405180910390f35b6104f360048036038101906104ee9190612266565b610bba565b6040516105009190612116565b60405180910390f35b610523600480360381019061051e9190612266565b610c2f565b6040516105309190612116565b60405180910390f35b610553600480360381019061054e919061234f565b610c51565b60405161056091906122b3565b60405180910390f35b610571610c72565b60405161057e9190612389565b60405180910390f35b6105a1600480360381019061059c91906123a2565b610c96565b005b6105bd60048036038101906105b891906124d0565b610cb7565b6040516105ca91906122b3565b60405180910390f35b6105db610d39565b6040516105e89190612389565b60405180910390f35b61060b60048036038101906106069190612414565b610d5d565b005b610615610dd7565b6040516106229190612389565b60405180910390f35b5f7f5a05180f000000000000000000000000000000000000000000000000000000007bffffffffffffffffffffffffffffffffffffffffffffffffffffffff1916827bffffffffffffffffffffffffffffffffffffffffffffffffffffffff1916148061069d575061069c82610dfb565b5b9050919050565b6060600580546106b39061253b565b80601f01602080910402602001604051908101604052809291908181526020018280546106df9061253b565b801561072a5780601f106107015761010080835404028352916020019161072a565b820191905f5260205f20905b81548152906001019060200180831161070d57829003601f168201915b5050505050905090565b5f8061073e610e74565b905061074b818585610e7b565b600191505092915050565b5f600454905090565b5f80610769610e74565b905061077685828561103e565b6107818585856110c9565b60019150509392505050565b5f805f8381526020019081526020015f20600101549050919050565b6107b28261078d565b6107bb81611338565b6107c5838361134c565b505050565b5f6012905090565b5f600854905090565b6107e3610e74565b73ffffffffffffffffffffffffffffffffffffffff168173ffffffffffffffffffffffffffffffffffffffff1614610850576040517f08c379a0000000000000000000000000000000000000000000000000000000008152600401610847906125db565b60405180910390fd5b61085a828261137e565b5050565b5f80610868610e74565b905061088981858561087a8589610cb7565b6108849190612626565b610e7b565b600191505092915050565b6108c57f65d7a28e3265b37a6474929f336521b332c1681b933f6cb9f3376673440d862a6108c0610e74565b610ac1565b610904576040517f08c379a00000000000000000000000000000000000000000000000000000000081526004016108fb906126c9565b60405180910390fd5b61090c6113b0565b565b61093f7f9f2df0fed2c77648de5860a4cc508cd0818c85b8b8a1ab4ceeef8d981c8956a661093a610e74565b610ac1565b61097e576040517f08c379a000000000000000000000000000000000000000000000000000000000815260040161097590612757565b60405180910390fd5b6109888282611411565b5050565b61099d610997610e74565b82611560565b50565b5f60075f9054906101000a900460ff16905090565b5f60025f8373ffffffffffffffffffffffffffffffffffffffff1673ffffffffffffffffffffffffffffffffffffffff1681526020019081526020015f20549050919050565b610a0d82610a07610e74565b8361103e565b610a178282611560565b5050565b610a4c7f65d7a28e3265b37a6474929f336521b332c1681b933f6cb9f3376673440d862a610a47610e74565b610ac1565b610a8b576040517f08c379a0000000000000000000000000000000000000000000000000000000008152600401610a82906127e5565b60405180910390fd5b610a93611725565b565b5f610ab98260015f8681526020019081526020015f2061178790919063ffffffff16565b905092915050565b5f805f8481526020019081526020015f205f015f8373ffffffffffffffffffffffffffffffffffffffff1673ffffffffffffffffffffffffffffffffffffffff1681526020019081526020015f205f9054906101000a900460ff16905092915050565b606060068054610b339061253b565b80601f0160208091040260200160405190810160405280929190818152602001828054610b5f9061253b565b8015610baa5780601f10610b8157610100808354040283529160200191610baa565b820191905f5260205f20905b815481529060010190602001808311610b8d57829003601f168201915b5050505050905090565b5f801b81565b5f80610bc4610e74565b90505f610bd18286610cb7565b905083811015610c16576040517f08c379a0000000000000000000000000000000000000000000000000000000008152600401610c0d90612873565b60405180910390fd5b610c238286868403610e7b565b60019250505092915050565b5f80610c39610e74565b9050610c468185856110c9565b600191505092915050565b5f610c6b60015f8481526020019081526020015f2061179e565b9050919050565b7f9f2df0fed2c77648de5860a4cc508cd0818c85b8b8a1ab4ceeef8d981c8956a681565b610c9f8261078d565b610ca881611338565b610cb2838361137e565b505050565b5f60035f8473ffffffffffffffffffffffffffffffffffffffff1673ffffffffffffffffffffffffffffffffffffffff1681526020019081526020015f205f8373ffffffffffffffffffffffffffffffffffffffff1673ffffffffffffffffffffffffffffffffffffffff1681526020019081526020015f2054905092915050565b7f65d7a28e3265b37a6474929f336521b332c1681b933f6cb9f3376673440d862a81565b610d8e7f6310cf9c937bcad92df0897b8ab11d37ff788bec126c5807fb57fb0423e3f40d610d89610e74565b610ac1565b610dcd576040517f08c379a0000000000000000000000000000000000000000000000000000000008152600401610dc490612901565b60405180910390fd5b8060088190555050565b7f6310cf9c937bcad92df0897b8ab11d37ff788bec126c5807fb57fb0423e3f40d81565b5f7f7965db0b000000000000000000000000000000000000000000000000000000007bffffffffffffffffffffffffffffffffffffffffffffffffffffffff1916827bffffffffffffffffffffffffffffffffffffffffffffffffffffffff19161480610e6d5750610e6c826117b1565b5b9050919050565b5f33905090565b5f73ffffffffffffffffffffffffffffffffffffffff168373ffffffffffffffffffffffffffffffffffffffff1603610ee9576040517f08c379a0000000000000000000000000000000000000000000000000000000008152600401610ee09061298f565b60405180910390fd5b5f73ffffffffffffffffffffffffffffffffffffffff168273ffffffffffffffffffffffffffffffffffffffff1603610f57576040517f08c379a0000000000000000000000000000000000000000000000000000000008152600401610f4e90612a1d565b60405180910390fd5b8060035f8573ffffffffffffffffffffffffffffffffffffffff1673ffffffffffffffffffffffffffffffffffffffff1681526020019081526020015f205f8473ffffffffffffffffffffffffffffffffffffffff1673ffffffffffffffffffffffffffffffffffffffff1681526020019081526020015f20819055508173ffffffffffffffffffffffffffffffffffffffff168373ffffffffffffffffffffffffffffffffffffffff167f8c5be1e5ebec7d5bd14f71427d1e84f3dd0314c0f7b2291e5b200ac8c7c3b9258360405161103191906122b3565b60405180910390a3505050565b5f6110498484610cb7565b90507fffffffffffffffffffffffffffffffffffffffffffffffffffffffffffffffff81146110c357818110156110b5576040517f08c379a00000000000000000000000000000000000000000000000000000000081526004016110ac90612a85565b60405180910390fd5b6110c28484848403610e7b565b5b50505050565b5f73ffffffffffffffffffffffffffffffffffffffff168373ffffffffffffffffffffffffffffffffffffffff1603611137576040517f08c379a000000000000000000000000000000000000000000000000000000000815260040161112e90612b13565b60405180910390fd5b5f73ffffffffffffffffffffffffffffffffffffffff168273ffffffffffffffffffffffffffffffffffffffff16036111a5576040517f08c379a000000000000000000000000000000000000000000000000000000000815260040161119c90612ba1565b60405180910390fd5b6111b083838361181a565b5f60025f8573ffffffffffffffffffffffffffffffffffffffff1673ffffffffffffffffffffffffffffffffffffffff1681526020019081526020015f2054905081811015611234576040517f08c379a000000000000000000000000000000000000000000000000000000000815260040161122b90612c2f565b60405180910390fd5b81810360025f8673ffffffffffffffffffffffffffffffffffffffff1673ffffffffffffffffffffffffffffffffffffffff1681526020019081526020015f20819055508160025f8573ffffffffffffffffffffffffffffffffffffffff1673ffffffffffffffffffffffffffffffffffffffff1681526020019081526020015f205f82825401925050819055508273ffffffffffffffffffffffffffffffffffffffff168473ffffffffffffffffffffffffffffffffffffffff167fddf252ad1be2c89b69c2b068fc378daa952ba7f163c4a11628f55a4df523b3ef8460405161131f91906122b3565b60405180910390a36113328484846118c1565b50505050565b61134981611344610e74565b6118c6565b50565b611356828261194a565b6113798160015f8581526020019081526020015f20611a2490919063ffffffff16565b505050565b6113888282611a51565b6113ab8160015f8581526020019081526020015f20611b2b90919063ffffffff16565b505050565b6113b8611b58565b5f60075f6101000a81548160ff0219169083151502179055507f5db9ee0a495bf2e6ff9c91a7834c1ba4fdd244a5e8aa4e537bd38aeae4b073aa6113fa610e74565b60405161140791906124b7565b60405180910390a1565b5f73ffffffffffffffffffffffffffffffffffffffff168273ffffffffffffffffffffffffffffffffffffffff160361147f576040517f08c379a000000000000000000000000000000000000000000000000000000000815260040161147690612c97565b60405180910390fd5b61148a5f838361181a565b8060045f82825461149b9190612626565b925050819055508060025f8473ffffffffffffffffffffffffffffffffffffffff1673ffffffffffffffffffffffffffffffffffffffff1681526020019081526020015f205f82825401925050819055508173ffffffffffffffffffffffffffffffffffffffff165f73ffffffffffffffffffffffffffffffffffffffff167fddf252ad1be2c89b69c2b068fc378daa952ba7f163c4a11628f55a4df523b3ef8360405161154991906122b3565b60405180910390a361155c5f83836118c1565b5050565b5f73ffffffffffffffffffffffffffffffffffffffff168273ffffffffffffffffffffffffffffffffffffffff16036115ce576040517f08c379a00000000000000000000000000000000000000000000000000000000081526004016115c590612d25565b60405180910390fd5b6115d9825f8361181a565b5f60025f8473ffffffffffffffffffffffffffffffffffffffff1673ffffffffffffffffffffffffffffffffffffffff1681526020019081526020015f205490508181101561165d576040517f08c379a000000000000000000000000000000000000000000000000000000000815260040161165490612db3565b60405180910390fd5b81810360025f8573ffffffffffffffffffffffffffffffffffffffff1673ffffffffffffffffffffffffffffffffffffffff1681526020019081526020015f20819055508160045f82825403925050819055505f73ffffffffffffffffffffffffffffffffffffffff168373ffffffffffffffffffffffffffffffffffffffff167fddf252ad1be2c89b69c2b068fc378daa952ba7f163c4a11628f55a4df523b3ef8460405161170d91906122b3565b60405180910390a3611720835f846118c1565b505050565b61172d611ba1565b600160075f6101000a81548160ff0219169083151502179055507f62e78cea01bee320cd4e420270b5ea74000d11b0c9f74754ebdbfc544b05a258611770610e74565b60405161177d91906124b7565b60405180910390a1565b5f611794835f0183611beb565b5f1c905092915050565b5f6117aa825f01611c12565b9050919050565b5f7f01ffc9a7000000000000000000000000000000000000000000000000000000007bffffffffffffffffffffffffffffffffffffffffffffffffffffffff1916827bffffffffffffffffffffffffffffffffffffffffffffffffffffffff1916149050919050565b611825838383611c21565b5f73ffffffffffffffffffffffffffffffffffffffff168373ffffffffffffffffffffffffffffffffffffffff16036118bc576118606107d2565b61187a8261186c610756565b611c7990919063ffffffff16565b11156118bb576040517f08c379a00000000000000000000000000000000000000000000000000000000081526004016118b290612e1b565b60405180910390fd5b5b505050565b505050565b6118d08282610ac1565b611946576118dd81611c8e565b6118ea835f1c6020611cbb565b6040516020016118fb929190612f07565b6040516020818303038152906040526040517f08c379a000000000000000000000000000000000000000000000000000000000815260040161193d91906121b9565b60405180910390fd5b5050565b6119548282610ac1565b611a205760015f808481526020019081526020015f205f015f8373ffffffffffffffffffffffffffffffffffffffff1673ffffffffffffffffffffffffffffffffffffffff1681526020019081526020015f205f6101000a81548160ff0219169083151502179055506119c5610e74565b73ffffffffffffffffffffffffffffffffffffffff168173ffffffffffffffffffffffffffffffffffffffff16837f2f8788117e7eff1d82e926ec794901d17c78024a50270940304540a733656f0d60405160405180910390a45b5050565b5f611a49835f018373ffffffffffffffffffffffffffffffffffffffff165f1b611ef0565b905092915050565b611a5b8282610ac1565b15611b27575f805f8481526020019081526020015f205f015f8373ffffffffffffffffffffffffffffffffffffffff1673ffffffffffffffffffffffffffffffffffffffff1681526020019081526020015f205f6101000a81548160ff021916908315150217905550611acc610e74565b73ffffffffffffffffffffffffffffffffffffffff168173ffffffffffffffffffffffffffffffffffffffff16837ff6391f5c32d9c69d2a47ea670b442974b53935d1edc7fd64eb21e047a839171b60405160405180910390a45b5050565b5f611b50835f018373ffffffffffffffffffffffffffffffffffffffff165f1b611f57565b905092915050565b611b606109a0565b611b9f576040517f08c379a0000000000000000000000000000000000000000000000000000000008152600401611b9690612f8a565b60405180910390fd5b565b611ba96109a0565b15611be9576040517f08c379a0000000000000000000000000000000000000000000000000000000008152600401611be090612ff2565b60405180910390fd5b565b5f825f018281548110611c0157611c00613010565b5b905f5260205f200154905092915050565b5f815f01805490509050919050565b611c2c838383612053565b611c346109a0565b15611c74576040517f08c379a0000000000000000000000000000000000000000000000000000000008152600401611c6b906130ad565b60405180910390fd5b505050565b5f8183611c869190612626565b905092915050565b6060611cb48273ffffffffffffffffffffffffffffffffffffffff16601460ff16611cbb565b9050919050565b60605f6002836002611ccd91906130cb565b611cd79190612626565b67ffffffffffffffff811115611cf057611cef61310c565b5b6040519080825280601f01601f191660200182016040528015611d225781602001600182028036833780820191505090505b5090507f3000000000000000000000000000000000000000000000000000000000000000815f81518110611d5957611d58613010565b5b60200101907effffffffffffffffffffffffffffffffffffffffffffffffffffffffffffff191690815f1a9053507f780000000000000000000000000000000000000000000000000000000000000081600181518110611dbc57611dbb613010565b5b60200101907effffffffffffffffffffffffffffffffffffffffffffffffffffffffffffff191690815f1a9053505f6001846002611dfa91906130cb565b611e049190612626565b90505b6001811115611ea3577f3031323334353637383961626364656600000000000000000000000000000000600f861660108110611e4657611e45613010565b5b1a60f81b828281518110611e5d57611e5c613010565b5b60200101907effffffffffffffffffffffffffffffffffffffffffffffffffffffffffffff191690815f1a905350600485901c945080611e9c90613139565b9050611e07565b505f8414611ee6576040517f08c379a0000000000000000000000000000000000000000000000000000000008152600401611edd906131aa565b60405180910390fd5b8091505092915050565b5f611efb8383612058565b611f4d57825f0182908060018154018082558091505060019003905f5260205f20015f9091909190915055825f0180549050836001015f8481526020019081526020015f208190555060019050611f51565b5f90505b92915050565b5f80836001015f8481526020019081526020015f205490505f8114612048575f600182611f8491906131c8565b90505f6001865f0180549050611f9a91906131c8565b9050818114612000575f865f018281548110611fb957611fb8613010565b5b905f5260205f200154905080875f018481548110611fda57611fd9613010565b5b905f5260205f20018190555083876001015f8381526020019081526020015f2081905550505b855f01805480612013576120126131fb565b5b600190038181905f5260205f20015f90559055856001015f8681526020019081526020015f205f90556001935050505061204d565b5f9150505b92915050565b505050565b5f80836001015f8481526020019081526020015f20541415905092915050565b5f80fd5b5f7fffffffff0000000000000000000000000000000000000000000000000000000082169050919050565b6120b08161207c565b81146120ba575f80fd5b50565b5f813590506120cb816120a7565b92915050565b5f602082840312156120e6576120e5612078565b5b5f6120f3848285016120bd565b91505092915050565b5f8115159050919050565b612110816120fc565b82525050565b5f6020820190506121295f830184612107565b92915050565b5f81519050919050565b5f82825260208201905092915050565b5f5b8381101561216657808201518184015260208101905061214b565b5f8484015250505050565b5f601f19601f8301169050919050565b5f61218b8261212f565b6121958185612139565b93506121a5818560208601612149565b6121ae81612171565b840191505092915050565b5f6020820190508181035f8301526121d18184612181565b905092915050565b5f73ffffffffffffffffffffffffffffffffffffffff82169050919050565b5f612202826121d9565b9050919050565b612212816121f8565b811461221c575f80fd5b50565b5f8135905061222d81612209565b92915050565b5f819050919050565b61224581612233565b811461224f575f80fd5b50565b5f813590506122608161223c565b92915050565b5f806040838503121561227c5761227b612078565b5b5f6122898582860161221f565b925050602061229a85828601612252565b9150509250929050565b6122ad81612233565b82525050565b5f6020820190506122c65f8301846122a4565b92915050565b5f805f606084860312156122e3576122e2612078565b5b5f6122f08682870161221f565b93505060206123018682870161221f565b925050604061231286828701612252565b9150509250925092565b5f819050919050565b61232e8161231c565b8114612338575f80fd5b50565b5f8135905061234981612325565b92915050565b5f6020828403121561236457612363612078565b5b5f6123718482850161233b565b91505092915050565b6123838161231c565b82525050565b5f60208201905061239c5f83018461237a565b92915050565b5f80604083850312156123b8576123b7612078565b5b5f6123c58582860161233b565b92505060206123d68582860161221f565b9150509250929050565b5f60ff82169050919050565b6123f5816123e0565b82525050565b5f60208201905061240e5f8301846123ec565b92915050565b5f6020828403121561242957612428612078565b5b5f61243684828501612252565b91505092915050565b5f6020828403121561245457612453612078565b5b5f6124618482850161221f565b91505092915050565b5f80604083850312156124805761247f612078565b5b5f61248d8582860161233b565b925050602061249e85828601612252565b9150509250929050565b6124b1816121f8565b82525050565b5f6020820190506124ca5f8301846124a8565b92915050565b5f80604083850312156124e6576124e5612078565b5b5f6124f38582860161221f565b92505060206125048582860161221f565b9150509250929050565b7f4e487b71000000000000000000000000000000000000000000000000000000005f52602260045260245ffd5b5f600282049050600182168061255257607f821691505b6020821081036125655761256461250e565b5b50919050565b7f416363657373436f6e74726f6c3a2063616e206f6e6c792072656e6f756e63655f8201527f20726f6c657320666f722073656c660000000000000000000000000000000000602082015250565b5f6125c5602f83612139565b91506125d08261256b565b604082019050919050565b5f6020820190508181035f8301526125f2816125b9565b9050919050565b7f4e487b71000000000000000000000000000000000000000000000000000000005f52601160045260245ffd5b5f61263082612233565b915061263b83612233565b9250828201905080821115612653576126526125f9565b5b92915050565b7f45524332305072657365744d696e7465725061757365723a206d7573742068615f8201527f76652070617573657220726f6c6520746f20756e706175736500000000000000602082015250565b5f6126b3603983612139565b91506126be82612659565b604082019050919050565b5f6020820190508181035f8301526126e0816126a7565b9050919050565b7f45524332305072657365744d696e7465725061757365723a206d7573742068615f8201527f7665206d696e74657220726f6c6520746f206d696e7400000000000000000000602082015250565b5f612741603683612139565b915061274c826126e7565b604082019050919050565b5f6020820190508181035f83015261276e81612735565b9050919050565b7f45524332305072657365744d696e7465725061757365723a206d7573742068615f8201527f76652070617573657220726f6c6520746f207061757365000000000000000000602082015250565b5f6127cf603783612139565b91506127da82612775565b604082019050919050565b5f6020820190508181035f8301526127fc816127c3565b9050919050565b7f45524332303a2064656372656173656420616c6c6f77616e63652062656c6f775f8201527f207a65726f000000000000000000000000000000000000000000000000000000602082015250565b5f61285d602583612139565b915061286882612803565b604082019050919050565b5f6020820190508181035f83015261288a81612851565b9050919050565b7f45524332305072657365744d696e7465725061757365723a206d7573742068615f8201527f7665206368616e676520726f6c6520746f207061757365000000000000000000602082015250565b5f6128eb603783612139565b91506128f682612891565b604082019050919050565b5f6020820190508181035f830152612918816128df565b9050919050565b7f45524332303a20617070726f76652066726f6d20746865207a65726f206164645f8201527f7265737300000000000000000000000000000000000000000000000000000000602082015250565b5f612979602483612139565b91506129848261291f565b604082019050919050565b5f6020820190508181035f8301526129a68161296d565b9050919050565b7f45524332303a20617070726f766520746f20746865207a65726f2061646472655f8201527f7373000000000000000000000000000000000000000000000000000000000000602082015250565b5f612a07602283612139565b9150612a12826129ad565b604082019050919050565b5f6020820190508181035f830152612a34816129fb565b9050919050565b7f45524332303a20696e73756666696369656e7420616c6c6f77616e63650000005f82015250565b5f612a6f601d83612139565b9150612a7a82612a3b565b602082019050919050565b5f6020820190508181035f830152612a9c81612a63565b9050919050565b7f45524332303a207472616e736665722066726f6d20746865207a65726f2061645f8201527f6472657373000000000000000000000000000000000000000000000000000000602082015250565b5f612afd602583612139565b9150612b0882612aa3565b604082019050919050565b5f6020820190508181035f830152612b2a81612af1565b9050919050565b7f45524332303a207472616e7366657220746f20746865207a65726f20616464725f8201527f6573730000000000000000000000000000000000000000000000000000000000602082015250565b5f612b8b602383612139565b9150612b9682612b31565b604082019050919050565b5f6020820190508181035f830152612bb881612b7f565b9050919050565b7f45524332303a207472616e7366657220616d6f756e74206578636565647320625f8201527f616c616e63650000000000000000000000000000000000000000000000000000602082015250565b5f612c19602683612139565b9150612c2482612bbf565b604082019050919050565b5f6020820190508181035f830152612c4681612c0d565b9050919050565b7f45524332303a206d696e7420746f20746865207a65726f2061646472657373005f82015250565b5f612c81601f83612139565b9150612c8c82612c4d565b602082019050919050565b5f6020820190508181035f830152612cae81612c75565b9050919050565b7f45524332303a206275726e2066726f6d20746865207a65726f206164647265735f8201527f7300000000000000000000000000000000000000000000000000000000000000602082015250565b5f612d0f602183612139565b9150612d1a82612cb5565b604082019050919050565b5f6020820190508181035f830152612d3c81612d03565b9050919050565b7f45524332303a206275726e20616d6f756e7420657863656564732062616c616e5f8201527f6365000000000000000000000000000000000000000000000000000000000000602082015250565b5f612d9d602283612139565b9150612da882612d43565b604082019050919050565b5f6020820190508181035f830152612dca81612d91565b9050919050565b7f45524332304361707065643a20636170206578636565646564000000000000005f82015250565b5f612e05601983612139565b9150612e1082612dd1565b602082019050919050565b5f6020820190508181035f830152612e3281612df9565b9050919050565b5f81905092915050565b7f416363657373436f6e74726f6c3a206163636f756e74200000000000000000005f82015250565b5f612e77601783612e39565b9150612e8282612e43565b601782019050919050565b5f612e978261212f565b612ea18185612e39565b9350612eb1818560208601612149565b80840191505092915050565b7f206973206d697373696e6720726f6c65200000000000000000000000000000005f82015250565b5f612ef1601183612e39565b9150612efc82612ebd565b601182019050919050565b5f612f1182612e6b565b9150612f1d8285612e8d565b9150612f2882612ee5565b9150612f348284612e8d565b91508190509392505050565b7f5061757361626c653a206e6f74207061757365640000000000000000000000005f82015250565b5f612f74601483612139565b9150612f7f82612f40565b602082019050919050565b5f6020820190508181035f830152612fa181612f68565b9050919050565b7f5061757361626c653a20706175736564000000000000000000000000000000005f82015250565b5f612fdc601083612139565b9150612fe782612fa8565b602082019050919050565b5f6020820190508181035f83015261300981612fd0565b9050919050565b7f4e487b71000000000000000000000000000000000000000000000000000000005f52603260045260245ffd5b7f45524332305061757361626c653a20746f6b656e207472616e736665722077685f8201527f696c652070617573656400000000000000000000000000000000000000000000602082015250565b5f613097602a83612139565b91506130a28261303d565b604082019050919050565b5f6020820190508181035f8301526130c48161308b565b9050919050565b5f6130d582612233565b91506130e083612233565b92508282026130ee81612233565b91508282048414831517613105576131046125f9565b5b5092915050565b7f4e487b71000000000000000000000000000000000000000000000000000000005f52604160045260245ffd5b5f61314382612233565b91505f8203613155576131546125f9565b5b600182039050919050565b7f537472696e67733a20686578206c656e67746820696e73756666696369656e745f82015250565b5f613194602083612139565b915061319f82613160565b602082019050919050565b5f6020820190508181035f8301526131c181613188565b9050919050565b5f6131d282612233565b91506131dd83612233565b92508282039050818111156131f5576131f46125f9565b5b92915050565b7f4e487b71000000000000000000000000000000000000000000000000000000005f52603160045260245ffdfea2646970667358221220abf2940045da237b6f5b21fd7f766c271a9557ad9b3e48fcb40ad3019eb5728b64736f6c63430008140033",
  "immutableReferences": {},
  "source": "// SPDX-License-Identifier: MIT\r\n// OpenZeppelin Contracts (last updated v4.5.0) (token/ERC20/presets/ERC20PresetMinterPauser.sol)\r\n\r\npragma solidity ^0.8.0;\r\n\r\nimport \"../node_modules/@openzeppelin/contracts/token/ERC20/ERC20.sol\";\r\nimport \"../node_modules/@openzeppelin/contracts/token/ERC20/extensions/ERC20Burnable.sol\";\r\nimport \"../node_modules/@openzeppelin/contracts/token/ERC20/extensions/ERC20Pausable.sol\";\r\nimport \"../node_modules/@openzeppelin/contracts/token/ERC20/extensions/ERC20Capped.sol\";\r\nimport \"..//node_modules/@openzeppelin/contracts/access/AccessControlEnumerable.sol\";\r\nimport \"..//node_modules/@openzeppelin/contracts/utils/Context.sol\";\r\nimport \"..//node_modules/@openzeppelin/contracts/utils/math/SafeMath.sol\";\r\n\r\n/**\r\n * @dev {ERC20} token, including:\r\n *\r\n *  - ability for holders to burn (destroy) their tokens\r\n *  - a minter role that allows for token minting (creation)\r\n *  - a pauser role that allows to stop all token transfers\r\n *\r\n * This contract uses {AccessControl} to lock permissioned functions using the\r\n * different roles - head to its documentation for details.\r\n *\r\n * The account that deploys the contract will be granted the minter and pauser\r\n * roles, as well as the default admin role, which will let it grant both minter\r\n * and pauser roles to other accounts.\r\n *\r\n * _Deprecated in favor of https://wizard.openzeppelin.com/[Contracts Wizard]._\r\n */\r\ncontract MinterPouserTest is Context, AccessControlEnumerable, ERC20Burnable, ERC20Pausable {\r\n    using SafeMath for uint256; \r\n    bytes32 public constant MINTER_ROLE = keccak256(\"MINTER_ROLE\");\r\n    bytes32 public constant PAUSER_ROLE = keccak256(\"PAUSER_ROLE\");\r\n    bytes32 public constant CHANGER_ROLE = keccak256(\"CHANGER_ROLE\");\r\n    uint256 private _cap;\r\n\r\n    /**\r\n     * @dev Grants `DEFAULT_ADMIN_ROLE`, `MINTER_ROLE` and `PAUSER_ROLE` to the\r\n     * account that deploys the contract.\r\n     *\r\n     * See {ERC20-constructor}.\r\n     */\r\n    constructor(string memory name, string memory symbol, uint256 cap_) ERC20(name, symbol) {\r\n\r\n        require(cap_ > 0, \"ERC20Capped: cap is 0\");\r\n            _cap = cap_;\r\n            \r\n        _setupRole(DEFAULT_ADMIN_ROLE, _msgSender());\r\n\r\n        _setupRole(MINTER_ROLE, _msgSender());\r\n        _setupRole(PAUSER_ROLE, _msgSender());\r\n        _setupRole(CHANGER_ROLE, _msgSender());\r\n\r\n    }\r\n\r\n    /**\r\n     * @dev Creates `amount` new tokens for `to`.\r\n     *\r\n     * See {ERC20-_mint}.\r\n     *\r\n     * Requirements:\r\n     *\r\n     * - the caller must have the `MINTER_ROLE`.\r\n     */\r\n    function mint(address to, uint256 amount) public virtual {\r\n        require(hasRole(MINTER_ROLE, _msgSender()), \"ERC20PresetMinterPauser: must have minter role to mint\");\r\n        _mint(to, amount);\r\n    }\r\n\r\n    function cap() public view virtual returns (uint256) {\r\n        return _cap;\r\n    }\r\n\r\n    function changer(uint256 change_cap) public virtual {\r\n        require(hasRole(CHANGER_ROLE, _msgSender()), \"ERC20PresetMinterPauser: must have change role to pause\");\r\n        _cap = change_cap;\r\n    }\r\n\r\n    /**\r\n     * @dev Pauses all token transfers.\r\n     *\r\n     * See {ERC20Pausable} and {Pausable-_pause}.\r\n     *\r\n     * Requirements:\r\n     *\r\n     * - the caller must have the `PAUSER_ROLE`.\r\n     */\r\n    function pause() public virtual {\r\n        require(hasRole(PAUSER_ROLE, _msgSender()), \"ERC20PresetMinterPauser: must have pauser role to pause\");\r\n        _pause();\r\n    }\r\n\r\n    /**\r\n     * @dev Unpauses all token transfers.\r\n     *\r\n     * See {ERC20Pausable} and {Pausable-_unpause}.\r\n     *\r\n     * Requirements:\r\n     *\r\n     * - the caller must have the `PAUSER_ROLE`.\r\n     */\r\n    function unpause() public virtual {\r\n        require(hasRole(PAUSER_ROLE, _msgSender()), \"ERC20PresetMinterPauser: must have pauser role to unpause\");\r\n        _unpause();\r\n    }\r\n\r\n    function _beforeTokenTransfer(address from, address to, uint256 amount) internal virtual override(ERC20, ERC20Pausable) {\r\n        super._beforeTokenTransfer(from, to, amount);\r\n\r\n        if(from == address(0)){\r\n            require(totalSupply().add(amount) <= cap(), \"ERC20Capped: cap exceeded\");\r\n        }\r\n        \r\n    }\r\n}\r\n",
  "sourcePath": "C:\\Users\\lane\\Desktop\\dex\\contracts\\minterpouser.sol",
  "compiler": {
    "name": "solc",
    "version": "0.8.20+commit.a1b79de6.Emscripten.clang"
  },
  "schemaVersion": "3.4.14",
  "updatedAt": "2023-06-03T10:50:09.413Z",
  "devdoc": {
    "details": "{ERC20} token, including:  - ability for holders to burn (destroy) their tokens  - a minter role that allows for token minting (creation)  - a pauser role that allows to stop all token transfers This contract uses {AccessControl} to lock permissioned functions using the different roles - head to its documentation for details. The account that deploys the contract will be granted the minter and pauser roles, as well as the default admin role, which will let it grant both minter and pauser roles to other accounts. _Deprecated in favor of https://wizard.openzeppelin.com/[Contracts Wizard]._",
    "events": {
      "Approval(address,address,uint256)": {
        "details": "Emitted when the allowance of a `spender` for an `owner` is set by a call to {approve}. `value` is the new allowance."
      },
      "Paused(address)": {
        "details": "Emitted when the pause is triggered by `account`."
      },
      "RoleAdminChanged(bytes32,bytes32,bytes32)": {
        "details": "Emitted when `newAdminRole` is set as ``role``'s admin role, replacing `previousAdminRole` `DEFAULT_ADMIN_ROLE` is the starting admin for all roles, despite {RoleAdminChanged} not being emitted signaling this. _Available since v3.1._"
      },
      "RoleGranted(bytes32,address,address)": {
        "details": "Emitted when `account` is granted `role`. `sender` is the account that originated the contract call, an admin role bearer except when using {AccessControl-_setupRole}."
      },
      "RoleRevoked(bytes32,address,address)": {
        "details": "Emitted when `account` is revoked `role`. `sender` is the account that originated the contract call:   - if using `revokeRole`, it is the admin role bearer   - if using `renounceRole`, it is the role bearer (i.e. `account`)"
      },
      "Transfer(address,address,uint256)": {
        "details": "Emitted when `value` tokens are moved from one account (`from`) to another (`to`). Note that `value` may be zero."
      },
      "Unpaused(address)": {
        "details": "Emitted when the pause is lifted by `account`."
      }
    },
    "kind": "dev",
    "methods": {
      "allowance(address,address)": {
        "details": "See {IERC20-allowance}."
      },
      "approve(address,uint256)": {
        "details": "See {IERC20-approve}. NOTE: If `amount` is the maximum `uint256`, the allowance is not updated on `transferFrom`. This is semantically equivalent to an infinite approval. Requirements: - `spender` cannot be the zero address."
      },
      "balanceOf(address)": {
        "details": "See {IERC20-balanceOf}."
      },
      "burn(uint256)": {
        "details": "Destroys `amount` tokens from the caller. See {ERC20-_burn}."
      },
      "burnFrom(address,uint256)": {
        "details": "Destroys `amount` tokens from `account`, deducting from the caller's allowance. See {ERC20-_burn} and {ERC20-allowance}. Requirements: - the caller must have allowance for ``accounts``'s tokens of at least `amount`."
      },
      "constructor": {
        "details": "Grants `DEFAULT_ADMIN_ROLE`, `MINTER_ROLE` and `PAUSER_ROLE` to the account that deploys the contract. See {ERC20-constructor}."
      },
      "decimals()": {
        "details": "Returns the number of decimals used to get its user representation. For example, if `decimals` equals `2`, a balance of `505` tokens should be displayed to a user as `5.05` (`505 / 10 ** 2`). Tokens usually opt for a value of 18, imitating the relationship between Ether and Wei. This is the default value returned by this function, unless it's overridden. NOTE: This information is only used for _display_ purposes: it in no way affects any of the arithmetic of the contract, including {IERC20-balanceOf} and {IERC20-transfer}."
      },
      "decreaseAllowance(address,uint256)": {
        "details": "Atomically decreases the allowance granted to `spender` by the caller. This is an alternative to {approve} that can be used as a mitigation for problems described in {IERC20-approve}. Emits an {Approval} event indicating the updated allowance. Requirements: - `spender` cannot be the zero address. - `spender` must have allowance for the caller of at least `subtractedValue`."
      },
      "getRoleAdmin(bytes32)": {
        "details": "Returns the admin role that controls `role`. See {grantRole} and {revokeRole}. To change a role's admin, use {_setRoleAdmin}."
      },
      "getRoleMember(bytes32,uint256)": {
        "details": "Returns one of the accounts that have `role`. `index` must be a value between 0 and {getRoleMemberCount}, non-inclusive. Role bearers are not sorted in any particular way, and their ordering may change at any point. WARNING: When using {getRoleMember} and {getRoleMemberCount}, make sure you perform all queries on the same block. See the following https://forum.openzeppelin.com/t/iterating-over-elements-on-enumerableset-in-openzeppelin-contracts/2296[forum post] for more information."
      },
      "getRoleMemberCount(bytes32)": {
        "details": "Returns the number of accounts that have `role`. Can be used together with {getRoleMember} to enumerate all bearers of a role."
      },
      "grantRole(bytes32,address)": {
        "details": "Grants `role` to `account`. If `account` had not been already granted `role`, emits a {RoleGranted} event. Requirements: - the caller must have ``role``'s admin role. May emit a {RoleGranted} event."
      },
      "hasRole(bytes32,address)": {
        "details": "Returns `true` if `account` has been granted `role`."
      },
      "increaseAllowance(address,uint256)": {
        "details": "Atomically increases the allowance granted to `spender` by the caller. This is an alternative to {approve} that can be used as a mitigation for problems described in {IERC20-approve}. Emits an {Approval} event indicating the updated allowance. Requirements: - `spender` cannot be the zero address."
      },
      "mint(address,uint256)": {
        "details": "Creates `amount` new tokens for `to`. See {ERC20-_mint}. Requirements: - the caller must have the `MINTER_ROLE`."
      },
      "name()": {
        "details": "Returns the name of the token."
      },
      "pause()": {
        "details": "Pauses all token transfers. See {ERC20Pausable} and {Pausable-_pause}. Requirements: - the caller must have the `PAUSER_ROLE`."
      },
      "paused()": {
        "details": "Returns true if the contract is paused, and false otherwise."
      },
      "renounceRole(bytes32,address)": {
        "details": "Revokes `role` from the calling account. Roles are often managed via {grantRole} and {revokeRole}: this function's purpose is to provide a mechanism for accounts to lose their privileges if they are compromised (such as when a trusted device is misplaced). If the calling account had been revoked `role`, emits a {RoleRevoked} event. Requirements: - the caller must be `account`. May emit a {RoleRevoked} event."
      },
      "revokeRole(bytes32,address)": {
        "details": "Revokes `role` from `account`. If `account` had been granted `role`, emits a {RoleRevoked} event. Requirements: - the caller must have ``role``'s admin role. May emit a {RoleRevoked} event."
      },
      "supportsInterface(bytes4)": {
        "details": "See {IERC165-supportsInterface}."
      },
      "symbol()": {
        "details": "Returns the symbol of the token, usually a shorter version of the name."
      },
      "totalSupply()": {
        "details": "See {IERC20-totalSupply}."
      },
      "transfer(address,uint256)": {
        "details": "See {IERC20-transfer}. Requirements: - `to` cannot be the zero address. - the caller must have a balance of at least `amount`."
      },
      "transferFrom(address,address,uint256)": {
        "details": "See {IERC20-transferFrom}. Emits an {Approval} event indicating the updated allowance. This is not required by the EIP. See the note at the beginning of {ERC20}. NOTE: Does not update the allowance if the current allowance is the maximum `uint256`. Requirements: - `from` and `to` cannot be the zero address. - `from` must have a balance of at least `amount`. - the caller must have allowance for ``from``'s tokens of at least `amount`."
      },
      "unpause()": {
        "details": "Unpauses all token transfers. See {ERC20Pausable} and {Pausable-_unpause}. Requirements: - the caller must have the `PAUSER_ROLE`."
      }
    },
    "version": 1
  },
  "userdoc": {
    "kind": "user",
    "methods": {},
    "version": 1
  }
}