{
  "contractName": "MyToken",
  "abi": [
    {
      "inputs": [],
      "stateMutability": "nonpayable",
      "type": "constructor"
    },
    {
      "anonymous": false,
      "inputs": [
        {
          "indexed": true,
          "internalType": "address",
          "name": "owner",
          "type": "address"
        },
        {
          "indexed": true,
          "internalType": "address",
          "name": "spender",
          "type": "address"
        },
        {
          "indexed": false,
          "internalType": "uint256",
          "name": "value",
          "type": "uint256"
        }
      ],
      "name": "Approval",
      "type": "event"
    },
    {
      "anonymous": false,
      "inputs": [
        {
          "indexed": true,
          "internalType": "address",
          "name": "previousOwner",
          "type": "address"
        },
        {
          "indexed": true,
          "internalType": "address",
          "name": "newOwner",
          "type": "address"
        }
      ],
      "name": "OwnershipTransferred",
      "type": "event"
    },
    {
      "anonymous": false,
      "inputs": [
        {
          "indexed": true,
          "internalType": "address",
          "name": "from",
          "type": "address"
        },
        {
          "indexed": true,
          "internalType": "address",
          "name": "to",
          "type": "address"
        },
        {
          "indexed": false,
          "internalType": "uint256",
          "name": "value",
          "type": "uint256"
        }
      ],
      "name": "Transfer",
      "type": "event"
    },
    {
      "inputs": [
        {
          "internalType": "address",
          "name": "owner",
          "type": "address"
        },
        {
          "internalType": "address",
          "name": "spender",
          "type": "address"
        }
      ],
      "name": "allowance",
      "outputs": [
        {
          "internalType": "uint256",
          "name": "",
          "type": "uint256"
        }
      ],
      "stateMutability": "view",
      "type": "function",
      "constant": true
    },
    {
      "inputs": [
        {
          "internalType": "address",
          "name": "spender",
          "type": "address"
        },
        {
          "internalType": "uint256",
          "name": "amount",
          "type": "uint256"
        }
      ],
      "name": "approve",
      "outputs": [
        {
          "internalType": "bool",
          "name": "",
          "type": "bool"
        }
      ],
      "stateMutability": "nonpayable",
      "type": "function"
    },
    {
      "inputs": [
        {
          "internalType": "address",
          "name": "account",
          "type": "address"
        }
      ],
      "name": "balanceOf",
      "outputs": [
        {
          "internalType": "uint256",
          "name": "",
          "type": "uint256"
        }
      ],
      "stateMutability": "view",
      "type": "function",
      "constant": true
    },
    {
      "inputs": [],
      "name": "cap",
      "outputs": [
        {
          "internalType": "uint256",
          "name": "",
          "type": "uint256"
        }
      ],
      "stateMutability": "view",
      "type": "function",
      "constant": true
    },
    {
      "inputs": [],
      "name": "decimals",
      "outputs": [
        {
          "internalType": "uint8",
          "name": "",
          "type": "uint8"
        }
      ],
      "stateMutability": "view",
      "type": "function",
      "constant": true
    },
    {
      "inputs": [
        {
          "internalType": "address",
          "name": "spender",
          "type": "address"
        },
        {
          "internalType": "uint256",
          "name": "subtractedValue",
          "type": "uint256"
        }
      ],
      "name": "decreaseAllowance",
      "outputs": [
        {
          "internalType": "bool",
          "name": "",
          "type": "bool"
        }
      ],
      "stateMutability": "nonpayable",
      "type": "function"
    },
    {
      "inputs": [
        {
          "internalType": "address",
          "name": "spender",
          "type": "address"
        },
        {
          "internalType": "uint256",
          "name": "addedValue",
          "type": "uint256"
        }
      ],
      "name": "increaseAllowance",
      "outputs": [
        {
          "internalType": "bool",
          "name": "",
          "type": "bool"
        }
      ],
      "stateMutability": "nonpayable",
      "type": "function"
    },
    {
      "inputs": [],
      "name": "name",
      "outputs": [
        {
          "internalType": "string",
          "name": "",
          "type": "string"
        }
      ],
      "stateMutability": "view",
      "type": "function",
      "constant": true
    },
    {
      "inputs": [],
      "name": "owner",
      "outputs": [
        {
          "internalType": "address",
          "name": "",
          "type": "address"
        }
      ],
      "stateMutability": "view",
      "type": "function",
      "constant": true
    },
    {
      "inputs": [],
      "name": "renounceOwnership",
      "outputs": [],
      "stateMutability": "nonpayable",
      "type": "function"
    },
    {
      "inputs": [],
      "name": "symbol",
      "outputs": [
        {
          "internalType": "string",
          "name": "",
          "type": "string"
        }
      ],
      "stateMutability": "view",
      "type": "function",
      "constant": true
    },
    {
      "inputs": [],
      "name": "totalSupply",
      "outputs": [
        {
          "internalType": "uint256",
          "name": "",
          "type": "uint256"
        }
      ],
      "stateMutability": "view",
      "type": "function",
      "constant": true
    },
    {
      "inputs": [
        {
          "internalType": "address",
          "name": "to",
          "type": "address"
        },
        {
          "internalType": "uint256",
          "name": "amount",
          "type": "uint256"
        }
      ],
      "name": "transfer",
      "outputs": [
        {
          "internalType": "bool",
          "name": "",
          "type": "bool"
        }
      ],
      "stateMutability": "nonpayable",
      "type": "function"
    },
    {
      "inputs": [
        {
          "internalType": "address",
          "name": "from",
          "type": "address"
        },
        {
          "internalType": "address",
          "name": "to",
          "type": "address"
        },
        {
          "internalType": "uint256",
          "name": "amount",
          "type": "uint256"
        }
      ],
      "name": "transferFrom",
      "outputs": [
        {
          "internalType": "bool",
          "name": "",
          "type": "bool"
        }
      ],
      "stateMutability": "nonpayable",
      "type": "function"
    },
    {
      "inputs": [
        {
          "internalType": "address",
          "name": "newOwner",
          "type": "address"
        }
      ],
      "name": "transferOwnership",
      "outputs": [],
      "stateMutability": "nonpayable",
      "type": "function"
    },
    {
      "inputs": [
        {
          "internalType": "uint256",
          "name": "amount",
          "type": "uint256"
        }
      ],
      "name": "burn",
      "outputs": [],
      "stateMutability": "nonpayable",
      "type": "function"
    },
    {
      "inputs": [
        {
          "internalType": "address",
          "name": "account",
          "type": "address"
        },
        {
          "internalType": "uint256",
          "name": "amount",
          "type": "uint256"
        }
      ],
      "name": "burnFrom",
      "outputs": [],
      "stateMutability": "nonpayable",
      "type": "function"
    }
  ],
  "bytecode": "0x60a060405234801562000010575f80fd5b50620249f06040518060400160405280600781526020017f4265536d617274000000000000000000000000000000000000000000000000008152506040518060400160405280600381526020017f4253430000000000000000000000000000000000000000000000000000000000815250816003908162000092919062000665565b508060049081620000a4919062000665565b5050505f8111620000ec576040517f08c379a0000000000000000000000000000000000000000000000000000000008152600401620000e390620007a7565b60405180910390fd5b80608081815250505062000115620001096200012f60201b60201c565b6200013660201b60201c565b62000129336103e8620001f960201b60201c565b62000936565b5f33905090565b5f60055f9054906101000a900473ffffffffffffffffffffffffffffffffffffffff1690508160055f6101000a81548173ffffffffffffffffffffffffffffffffffffffff021916908373ffffffffffffffffffffffffffffffffffffffff1602179055508173ffffffffffffffffffffffffffffffffffffffff168173ffffffffffffffffffffffffffffffffffffffff167f8be0079c531659141344cd1fd0a4f28419497f9722a3daafe3b4186f6b6457e060405160405180910390a35050565b620002096200028060201b60201c565b816200021a6200028960201b60201c565b620002269190620007f4565b11156200026a576040517f08c379a000000000000000000000000000000000000000000000000000000000815260040162000261906200087c565b60405180910390fd5b6200027c82826200029260201b60201c565b5050565b5f608051905090565b5f600254905090565b5f73ffffffffffffffffffffffffffffffffffffffff168273ffffffffffffffffffffffffffffffffffffffff160362000303576040517f08c379a0000000000000000000000000000000000000000000000000000000008152600401620002fa90620008ea565b60405180910390fd5b620003165f8383620003f760201b60201c565b8060025f828254620003299190620007f4565b92505081905550805f808473ffffffffffffffffffffffffffffffffffffffff1673ffffffffffffffffffffffffffffffffffffffff1681526020019081526020015f205f82825401925050819055508173ffffffffffffffffffffffffffffffffffffffff165f73ffffffffffffffffffffffffffffffffffffffff167fddf252ad1be2c89b69c2b068fc378daa952ba7f163c4a11628f55a4df523b3ef83604051620003d891906200091b565b60405180910390a3620003f35f8383620003fc60201b60201c565b5050565b505050565b505050565b5f81519050919050565b7f4e487b71000000000000000000000000000000000000000000000000000000005f52604160045260245ffd5b7f4e487b71000000000000000000000000000000000000000000000000000000005f52602260045260245ffd5b5f60028204905060018216806200047d57607f821691505b60208210810362000493576200049262000438565b5b50919050565b5f819050815f5260205f209050919050565b5f6020601f8301049050919050565b5f82821b905092915050565b5f60088302620004f77fffffffffffffffffffffffffffffffffffffffffffffffffffffffffffffffff82620004ba565b620005038683620004ba565b95508019841693508086168417925050509392505050565b5f819050919050565b5f819050919050565b5f6200054d6200054762000541846200051b565b62000524565b6200051b565b9050919050565b5f819050919050565b62000568836200052d565b62000580620005778262000554565b848454620004c6565b825550505050565b5f90565b6200059662000588565b620005a38184846200055d565b505050565b5b81811015620005ca57620005be5f826200058c565b600181019050620005a9565b5050565b601f8211156200061957620005e38162000499565b620005ee84620004ab565b81016020851015620005fe578190505b620006166200060d85620004ab565b830182620005a8565b50505b505050565b5f82821c905092915050565b5f6200063b5f19846008026200061e565b1980831691505092915050565b5f6200065583836200062a565b9150826002028217905092915050565b620006708262000401565b67ffffffffffffffff8111156200068c576200068b6200040b565b5b62000698825462000465565b620006a5828285620005ce565b5f60209050601f831160018114620006db575f8415620006c6578287015190505b620006d2858262000648565b86555062000741565b601f198416620006eb8662000499565b5f5b828110156200071457848901518255600182019150602085019450602081019050620006ed565b8683101562000734578489015162000730601f8916826200062a565b8355505b6001600288020188555050505b505050505050565b5f82825260208201905092915050565b7f45524332304361707065643a20636170206973203000000000000000000000005f82015250565b5f6200078f60158362000749565b91506200079c8262000759565b602082019050919050565b5f6020820190508181035f830152620007c08162000781565b9050919050565b7f4e487b71000000000000000000000000000000000000000000000000000000005f52601160045260245ffd5b5f62000800826200051b565b91506200080d836200051b565b9250828201905080821115620008285762000827620007c7565b5b92915050565b7f45524332304361707065643a20636170206578636565646564000000000000005f82015250565b5f6200086460198362000749565b915062000871826200082e565b602082019050919050565b5f6020820190508181035f830152620008958162000856565b9050919050565b7f45524332303a206d696e7420746f20746865207a65726f2061646472657373005f82015250565b5f620008d2601f8362000749565b9150620008df826200089c565b602082019050919050565b5f6020820190508181035f8301526200090381620008c4565b9050919050565b62000915816200051b565b82525050565b5f602082019050620009305f8301846200090a565b92915050565b6080516119406200094f5f395f61046301526119405ff3fe608060405234801561000f575f80fd5b5060043610610109575f3560e01c806370a08231116100a057806395d89b411161006f57806395d89b41146102a5578063a457c2d7146102c3578063a9059cbb146102f3578063dd62ed3e14610323578063f2fde38b1461035357610109565b806370a0823114610231578063715018a61461026157806379cc67901461026b5780638da5cb5b1461028757610109565b8063313ce567116100dc578063313ce567146101a9578063355274ea146101c757806339509351146101e557806342966c681461021557610109565b806306fdde031461010d578063095ea7b31461012b57806318160ddd1461015b57806323b872dd14610179575b5f80fd5b61011561036f565b6040516101229190610ff5565b60405180910390f35b610145600480360381019061014091906110a6565b6103ff565b60405161015291906110fe565b60405180910390f35b610163610421565b6040516101709190611126565b60405180910390f35b610193600480360381019061018e919061113f565b61042a565b6040516101a091906110fe565b60405180910390f35b6101b1610458565b6040516101be91906111aa565b60405180910390f35b6101cf610460565b6040516101dc9190611126565b60405180910390f35b6101ff60048036038101906101fa91906110a6565b610487565b60405161020c91906110fe565b60405180910390f35b61022f600480360381019061022a91906111c3565b6104bd565b005b61024b600480360381019061024691906111ee565b6104d1565b6040516102589190611126565b60405180910390f35b610269610516565b005b610285600480360381019061028091906110a6565b610529565b005b61028f610549565b60405161029c9190611228565b60405180910390f35b6102ad610571565b6040516102ba9190610ff5565b60405180910390f35b6102dd60048036038101906102d891906110a6565b610601565b6040516102ea91906110fe565b60405180910390f35b61030d600480360381019061030891906110a6565b610676565b60405161031a91906110fe565b60405180910390f35b61033d60048036038101906103389190611241565b610698565b60405161034a9190611126565b60405180910390f35b61036d600480360381019061036891906111ee565b61071a565b005b60606003805461037e906112ac565b80601f01602080910402602001604051908101604052809291908181526020018280546103aa906112ac565b80156103f55780601f106103cc576101008083540402835291602001916103f5565b820191905f5260205f20905b8154815290600101906020018083116103d857829003601f168201915b5050505050905090565b5f8061040961079c565b90506104168185856107a3565b600191505092915050565b5f600254905090565b5f8061043461079c565b9050610441858285610966565b61044c8585856109f1565b60019150509392505050565b5f6012905090565b5f7f0000000000000000000000000000000000000000000000000000000000000000905090565b5f8061049161079c565b90506104b28185856104a38589610698565b6104ad9190611309565b6107a3565b600191505092915050565b6104ce6104c861079c565b82610c5d565b50565b5f805f8373ffffffffffffffffffffffffffffffffffffffff1673ffffffffffffffffffffffffffffffffffffffff1681526020019081526020015f20549050919050565b61051e610e20565b6105275f610e9e565b565b61053b8261053561079c565b83610966565b6105458282610c5d565b5050565b5f60055f9054906101000a900473ffffffffffffffffffffffffffffffffffffffff16905090565b606060048054610580906112ac565b80601f01602080910402602001604051908101604052809291908181526020018280546105ac906112ac565b80156105f75780601f106105ce576101008083540402835291602001916105f7565b820191905f5260205f20905b8154815290600101906020018083116105da57829003601f168201915b5050505050905090565b5f8061060b61079c565b90505f6106188286610698565b90508381101561065d576040517f08c379a0000000000000000000000000000000000000000000000000000000008152600401610654906113ac565b60405180910390fd5b61066a82868684036107a3565b60019250505092915050565b5f8061068061079c565b905061068d8185856109f1565b600191505092915050565b5f60015f8473ffffffffffffffffffffffffffffffffffffffff1673ffffffffffffffffffffffffffffffffffffffff1681526020019081526020015f205f8373ffffffffffffffffffffffffffffffffffffffff1673ffffffffffffffffffffffffffffffffffffffff1681526020019081526020015f2054905092915050565b610722610e20565b5f73ffffffffffffffffffffffffffffffffffffffff168173ffffffffffffffffffffffffffffffffffffffff1603610790576040517f08c379a00000000000000000000000000000000000000000000000000000000081526004016107879061143a565b60405180910390fd5b61079981610e9e565b50565b5f33905090565b5f73ffffffffffffffffffffffffffffffffffffffff168373ffffffffffffffffffffffffffffffffffffffff1603610811576040517f08c379a0000000000000000000000000000000000000000000000000000000008152600401610808906114c8565b60405180910390fd5b5f73ffffffffffffffffffffffffffffffffffffffff168273ffffffffffffffffffffffffffffffffffffffff160361087f576040517f08c379a000000000000000000000000000000000000000000000000000000000815260040161087690611556565b60405180910390fd5b8060015f8573ffffffffffffffffffffffffffffffffffffffff1673ffffffffffffffffffffffffffffffffffffffff1681526020019081526020015f205f8473ffffffffffffffffffffffffffffffffffffffff1673ffffffffffffffffffffffffffffffffffffffff1681526020019081526020015f20819055508173ffffffffffffffffffffffffffffffffffffffff168373ffffffffffffffffffffffffffffffffffffffff167f8c5be1e5ebec7d5bd14f71427d1e84f3dd0314c0f7b2291e5b200ac8c7c3b925836040516109599190611126565b60405180910390a3505050565b5f6109718484610698565b90507fffffffffffffffffffffffffffffffffffffffffffffffffffffffffffffffff81146109eb57818110156109dd576040517f08c379a00000000000000000000000000000000000000000000000000000000081526004016109d4906115be565b60405180910390fd5b6109ea84848484036107a3565b5b50505050565b5f73ffffffffffffffffffffffffffffffffffffffff168373ffffffffffffffffffffffffffffffffffffffff1603610a5f576040517f08c379a0000000000000000000000000000000000000000000000000000000008152600401610a569061164c565b60405180910390fd5b5f73ffffffffffffffffffffffffffffffffffffffff168273ffffffffffffffffffffffffffffffffffffffff1603610acd576040517f08c379a0000000000000000000000000000000000000000000000000000000008152600401610ac4906116da565b60405180910390fd5b610ad8838383610f61565b5f805f8573ffffffffffffffffffffffffffffffffffffffff1673ffffffffffffffffffffffffffffffffffffffff1681526020019081526020015f2054905081811015610b5b576040517f08c379a0000000000000000000000000000000000000000000000000000000008152600401610b5290611768565b60405180910390fd5b8181035f808673ffffffffffffffffffffffffffffffffffffffff1673ffffffffffffffffffffffffffffffffffffffff1681526020019081526020015f2081905550815f808573ffffffffffffffffffffffffffffffffffffffff1673ffffffffffffffffffffffffffffffffffffffff1681526020019081526020015f205f82825401925050819055508273ffffffffffffffffffffffffffffffffffffffff168473ffffffffffffffffffffffffffffffffffffffff167fddf252ad1be2c89b69c2b068fc378daa952ba7f163c4a11628f55a4df523b3ef84604051610c449190611126565b60405180910390a3610c57848484610f66565b50505050565b5f73ffffffffffffffffffffffffffffffffffffffff168273ffffffffffffffffffffffffffffffffffffffff1603610ccb576040517f08c379a0000000000000000000000000000000000000000000000000000000008152600401610cc2906117f6565b60405180910390fd5b610cd6825f83610f61565b5f805f8473ffffffffffffffffffffffffffffffffffffffff1673ffffffffffffffffffffffffffffffffffffffff1681526020019081526020015f2054905081811015610d59576040517f08c379a0000000000000000000000000000000000000000000000000000000008152600401610d5090611884565b60405180910390fd5b8181035f808573ffffffffffffffffffffffffffffffffffffffff1673ffffffffffffffffffffffffffffffffffffffff1681526020019081526020015f20819055508160025f82825403925050819055505f73ffffffffffffffffffffffffffffffffffffffff168373ffffffffffffffffffffffffffffffffffffffff167fddf252ad1be2c89b69c2b068fc378daa952ba7f163c4a11628f55a4df523b3ef84604051610e089190611126565b60405180910390a3610e1b835f84610f66565b505050565b610e2861079c565b73ffffffffffffffffffffffffffffffffffffffff16610e46610549565b73ffffffffffffffffffffffffffffffffffffffff1614610e9c576040517f08c379a0000000000000000000000000000000000000000000000000000000008152600401610e93906118ec565b60405180910390fd5b565b5f60055f9054906101000a900473ffffffffffffffffffffffffffffffffffffffff1690508160055f6101000a81548173ffffffffffffffffffffffffffffffffffffffff021916908373ffffffffffffffffffffffffffffffffffffffff1602179055508173ffffffffffffffffffffffffffffffffffffffff168173ffffffffffffffffffffffffffffffffffffffff167f8be0079c531659141344cd1fd0a4f28419497f9722a3daafe3b4186f6b6457e060405160405180910390a35050565b505050565b505050565b5f81519050919050565b5f82825260208201905092915050565b5f5b83811015610fa2578082015181840152602081019050610f87565b5f8484015250505050565b5f601f19601f8301169050919050565b5f610fc782610f6b565b610fd18185610f75565b9350610fe1818560208601610f85565b610fea81610fad565b840191505092915050565b5f6020820190508181035f83015261100d8184610fbd565b905092915050565b5f80fd5b5f73ffffffffffffffffffffffffffffffffffffffff82169050919050565b5f61104282611019565b9050919050565b61105281611038565b811461105c575f80fd5b50565b5f8135905061106d81611049565b92915050565b5f819050919050565b61108581611073565b811461108f575f80fd5b50565b5f813590506110a08161107c565b92915050565b5f80604083850312156110bc576110bb611015565b5b5f6110c98582860161105f565b92505060206110da85828601611092565b9150509250929050565b5f8115159050919050565b6110f8816110e4565b82525050565b5f6020820190506111115f8301846110ef565b92915050565b61112081611073565b82525050565b5f6020820190506111395f830184611117565b92915050565b5f805f6060848603121561115657611155611015565b5b5f6111638682870161105f565b93505060206111748682870161105f565b925050604061118586828701611092565b9150509250925092565b5f60ff82169050919050565b6111a48161118f565b82525050565b5f6020820190506111bd5f83018461119b565b92915050565b5f602082840312156111d8576111d7611015565b5b5f6111e584828501611092565b91505092915050565b5f6020828403121561120357611202611015565b5b5f6112108482850161105f565b91505092915050565b61122281611038565b82525050565b5f60208201905061123b5f830184611219565b92915050565b5f806040838503121561125757611256611015565b5b5f6112648582860161105f565b92505060206112758582860161105f565b9150509250929050565b7f4e487b71000000000000000000000000000000000000000000000000000000005f52602260045260245ffd5b5f60028204905060018216806112c357607f821691505b6020821081036112d6576112d561127f565b5b50919050565b7f4e487b71000000000000000000000000000000000000000000000000000000005f52601160045260245ffd5b5f61131382611073565b915061131e83611073565b9250828201905080821115611336576113356112dc565b5b92915050565b7f45524332303a2064656372656173656420616c6c6f77616e63652062656c6f775f8201527f207a65726f000000000000000000000000000000000000000000000000000000602082015250565b5f611396602583610f75565b91506113a18261133c565b604082019050919050565b5f6020820190508181035f8301526113c38161138a565b9050919050565b7f4f776e61626c653a206e6577206f776e657220697320746865207a65726f20615f8201527f6464726573730000000000000000000000000000000000000000000000000000602082015250565b5f611424602683610f75565b915061142f826113ca565b604082019050919050565b5f6020820190508181035f83015261145181611418565b9050919050565b7f45524332303a20617070726f76652066726f6d20746865207a65726f206164645f8201527f7265737300000000000000000000000000000000000000000000000000000000602082015250565b5f6114b2602483610f75565b91506114bd82611458565b604082019050919050565b5f6020820190508181035f8301526114df816114a6565b9050919050565b7f45524332303a20617070726f766520746f20746865207a65726f2061646472655f8201527f7373000000000000000000000000000000000000000000000000000000000000602082015250565b5f611540602283610f75565b915061154b826114e6565b604082019050919050565b5f6020820190508181035f83015261156d81611534565b9050919050565b7f45524332303a20696e73756666696369656e7420616c6c6f77616e63650000005f82015250565b5f6115a8601d83610f75565b91506115b382611574565b602082019050919050565b5f6020820190508181035f8301526115d58161159c565b9050919050565b7f45524332303a207472616e736665722066726f6d20746865207a65726f2061645f8201527f6472657373000000000000000000000000000000000000000000000000000000602082015250565b5f611636602583610f75565b9150611641826115dc565b604082019050919050565b5f6020820190508181035f8301526116638161162a565b9050919050565b7f45524332303a207472616e7366657220746f20746865207a65726f20616464725f8201527f6573730000000000000000000000000000000000000000000000000000000000602082015250565b5f6116c4602383610f75565b91506116cf8261166a565b604082019050919050565b5f6020820190508181035f8301526116f1816116b8565b9050919050565b7f45524332303a207472616e7366657220616d6f756e74206578636565647320625f8201527f616c616e63650000000000000000000000000000000000000000000000000000602082015250565b5f611752602683610f75565b915061175d826116f8565b604082019050919050565b5f6020820190508181035f83015261177f81611746565b9050919050565b7f45524332303a206275726e2066726f6d20746865207a65726f206164647265735f8201527f7300000000000000000000000000000000000000000000000000000000000000602082015250565b5f6117e0602183610f75565b91506117eb82611786565b604082019050919050565b5f6020820190508181035f83015261180d816117d4565b9050919050565b7f45524332303a206275726e20616d6f756e7420657863656564732062616c616e5f8201527f6365000000000000000000000000000000000000000000000000000000000000602082015250565b5f61186e602283610f75565b915061187982611814565b604082019050919050565b5f6020820190508181035f83015261189b81611862565b9050919050565b7f4f776e61626c653a2063616c6c6572206973206e6f7420746865206f776e65725f82015250565b5f6118d6602083610f75565b91506118e1826118a2565b602082019050919050565b5f6020820190508181035f830152611903816118ca565b905091905056fea26469706673582212200722ea74e02250c28ebd6627c96a74d48519c2fdfa470f04f10b68215977aa7c64736f6c63430008140033",
  "immutableReferences": {
    "1143": [
      {
        "length": 32,
        "start": 1123
      }
    ]
  },
  "source": "// SPDX-License-Identifier: MIT\r\npragma solidity >=0.6.0 <0.9.0;\r\n\r\nimport \"../node_modules/@openzeppelin/contracts/token/ERC20/extensions/ERC20Capped.sol\";\r\nimport \"../node_modules/@openzeppelin/contracts/access/Ownable.sol\";\r\n\r\ncontract MyToken is ERC20Capped, Ownable {\r\n    constructor() ERC20(\"BeSmart\", \"BSC\") ERC20Capped(150000) {\r\n        // additional functionallity if we need \r\n        _mint(msg.sender, 1000);\r\n    }\r\n\r\n    // extenzije burnable bez inheritanja, because burnable i capped are inheriting ERC20.sol (doble inheritance, lverriding functions,...)\r\n\r\n    function burn(uint256 amount) public virtual {\r\n        _burn(_msgSender(), amount);\r\n    }\r\n\r\n    // this function is for allowance, if needed\r\n    function burnFrom(address account, uint256 amount) public virtual {\r\n        _spendAllowance(account, _msgSender(), amount);\r\n        _burn(account, amount);\r\n    }\r\n}",
  "sourcePath": "C:\\Users\\lane\\Desktop\\dex\\contracts\\token.sol",
  "compiler": {
    "name": "solc",
    "version": "0.8.20+commit.a1b79de6.Emscripten.clang"
  },
  "schemaVersion": "3.4.14",
  "updatedAt": "2023-06-03T16:43:33.421Z",
  "networkType": "ethereum",
  "devdoc": {
    "events": {
      "Approval(address,address,uint256)": {
        "details": "Emitted when the allowance of a `spender` for an `owner` is set by a call to {approve}. `value` is the new allowance."
      },
      "Transfer(address,address,uint256)": {
        "details": "Emitted when `value` tokens are moved from one account (`from`) to another (`to`). Note that `value` may be zero."
      }
    },
    "kind": "dev",
    "methods": {
      "allowance(address,address)": {
        "details": "See {IERC20-allowance}."
      },
      "approve(address,uint256)": {
        "details": "See {IERC20-approve}. NOTE: If `amount` is the maximum `uint256`, the allowance is not updated on `transferFrom`. This is semantically equivalent to an infinite approval. Requirements: - `spender` cannot be the zero address."
      },
      "balanceOf(address)": {
        "details": "See {IERC20-balanceOf}."
      },
      "cap()": {
        "details": "Returns the cap on the token's total supply."
      },
      "decimals()": {
        "details": "Returns the number of decimals used to get its user representation. For example, if `decimals` equals `2`, a balance of `505` tokens should be displayed to a user as `5.05` (`505 / 10 ** 2`). Tokens usually opt for a value of 18, imitating the relationship between Ether and Wei. This is the default value returned by this function, unless it's overridden. NOTE: This information is only used for _display_ purposes: it in no way affects any of the arithmetic of the contract, including {IERC20-balanceOf} and {IERC20-transfer}."
      },
      "decreaseAllowance(address,uint256)": {
        "details": "Atomically decreases the allowance granted to `spender` by the caller. This is an alternative to {approve} that can be used as a mitigation for problems described in {IERC20-approve}. Emits an {Approval} event indicating the updated allowance. Requirements: - `spender` cannot be the zero address. - `spender` must have allowance for the caller of at least `subtractedValue`."
      },
      "increaseAllowance(address,uint256)": {
        "details": "Atomically increases the allowance granted to `spender` by the caller. This is an alternative to {approve} that can be used as a mitigation for problems described in {IERC20-approve}. Emits an {Approval} event indicating the updated allowance. Requirements: - `spender` cannot be the zero address."
      },
      "name()": {
        "details": "Returns the name of the token."
      },
      "owner()": {
        "details": "Returns the address of the current owner."
      },
      "renounceOwnership()": {
        "details": "Leaves the contract without owner. It will not be possible to call `onlyOwner` functions. Can only be called by the current owner. NOTE: Renouncing ownership will leave the contract without an owner, thereby disabling any functionality that is only available to the owner."
      },
      "symbol()": {
        "details": "Returns the symbol of the token, usually a shorter version of the name."
      },
      "totalSupply()": {
        "details": "See {IERC20-totalSupply}."
      },
      "transfer(address,uint256)": {
        "details": "See {IERC20-transfer}. Requirements: - `to` cannot be the zero address. - the caller must have a balance of at least `amount`."
      },
      "transferFrom(address,address,uint256)": {
        "details": "See {IERC20-transferFrom}. Emits an {Approval} event indicating the updated allowance. This is not required by the EIP. See the note at the beginning of {ERC20}. NOTE: Does not update the allowance if the current allowance is the maximum `uint256`. Requirements: - `from` and `to` cannot be the zero address. - `from` must have a balance of at least `amount`. - the caller must have allowance for ``from``'s tokens of at least `amount`."
      },
      "transferOwnership(address)": {
        "details": "Transfers ownership of the contract to a new account (`newOwner`). Can only be called by the current owner."
      }
    },
    "version": 1
  },
  "userdoc": {
    "kind": "user",
    "methods": {},
    "version": 1
  }
}