{
  "contractName": "Wallet",
  "abi": [
    {
      "anonymous": false,
      "inputs": [
        {
          "indexed": true,
          "internalType": "address",
          "name": "previousOwner",
          "type": "address"
        },
        {
          "indexed": true,
          "internalType": "address",
          "name": "newOwner",
          "type": "address"
        }
      ],
      "name": "OwnershipTransferred",
      "type": "event"
    },
    {
      "inputs": [
        {
          "internalType": "address",
          "name": "",
          "type": "address"
        },
        {
          "internalType": "bytes32",
          "name": "",
          "type": "bytes32"
        }
      ],
      "name": "balances",
      "outputs": [
        {
          "internalType": "uint256",
          "name": "",
          "type": "uint256"
        }
      ],
      "stateMutability": "view",
      "type": "function",
      "constant": true
    },
    {
      "inputs": [],
      "name": "owner",
      "outputs": [
        {
          "internalType": "address",
          "name": "",
          "type": "address"
        }
      ],
      "stateMutability": "view",
      "type": "function",
      "constant": true
    },
    {
      "inputs": [],
      "name": "renounceOwnership",
      "outputs": [],
      "stateMutability": "nonpayable",
      "type": "function"
    },
    {
      "inputs": [
        {
          "internalType": "uint256",
          "name": "",
          "type": "uint256"
        }
      ],
      "name": "tokenList",
      "outputs": [
        {
          "internalType": "bytes32",
          "name": "",
          "type": "bytes32"
        }
      ],
      "stateMutability": "view",
      "type": "function",
      "constant": true
    },
    {
      "inputs": [
        {
          "internalType": "bytes32",
          "name": "",
          "type": "bytes32"
        }
      ],
      "name": "tokenMapping",
      "outputs": [
        {
          "internalType": "bytes32",
          "name": "ticker",
          "type": "bytes32"
        },
        {
          "internalType": "address",
          "name": "tokenAddress",
          "type": "address"
        }
      ],
      "stateMutability": "view",
      "type": "function",
      "constant": true
    },
    {
      "inputs": [
        {
          "internalType": "address",
          "name": "newOwner",
          "type": "address"
        }
      ],
      "name": "transferOwnership",
      "outputs": [],
      "stateMutability": "nonpayable",
      "type": "function"
    },
    {
      "inputs": [
        {
          "internalType": "bytes32",
          "name": "ticker",
          "type": "bytes32"
        },
        {
          "internalType": "address",
          "name": "tokenAddress",
          "type": "address"
        }
      ],
      "name": "addToken",
      "outputs": [],
      "stateMutability": "nonpayable",
      "type": "function"
    },
    {
      "inputs": [
        {
          "internalType": "uint256",
          "name": "amount",
          "type": "uint256"
        },
        {
          "internalType": "bytes32",
          "name": "ticker",
          "type": "bytes32"
        }
      ],
      "name": "deposit",
      "outputs": [],
      "stateMutability": "nonpayable",
      "type": "function"
    },
    {
      "inputs": [
        {
          "internalType": "uint256",
          "name": "amount",
          "type": "uint256"
        },
        {
          "internalType": "bytes32",
          "name": "ticker",
          "type": "bytes32"
        }
      ],
      "name": "withdraw",
      "outputs": [],
      "stateMutability": "nonpayable",
      "type": "function"
    }
  ],
  "bytecode": "0x608060405234801561000f575f80fd5b5061002c61002161003160201b60201c565b61003860201b60201c565b6100f9565b5f33905090565b5f805f9054906101000a900473ffffffffffffffffffffffffffffffffffffffff169050815f806101000a81548173ffffffffffffffffffffffffffffffffffffffff021916908373ffffffffffffffffffffffffffffffffffffffff1602179055508173ffffffffffffffffffffffffffffffffffffffff168173ffffffffffffffffffffffffffffffffffffffff167f8be0079c531659141344cd1fd0a4f28419497f9722a3daafe3b4186f6b6457e060405160405180910390a35050565b610fbc806101065f395ff3fe608060405234801561000f575f80fd5b5060043610610091575f3560e01c80639776aacf116100645780639776aacf1461011e5780639ead72221461013a578063a8d2021a1461016a578063c9630cb014610186578063f2fde38b146101a257610091565b80631f14df6914610095578063667cb4ba146100c5578063715018a6146100f65780638da5cb5b14610100575b5f80fd5b6100af60048036038101906100aa9190610a54565b6101be565b6040516100bc9190610aaa565b60405180910390f35b6100df60048036038101906100da9190610ac3565b6101de565b6040516100ed929190610b0c565b60405180910390f35b6100fe61021d565b005b610108610230565b6040516101159190610b33565b60405180910390f35b61013860048036038101906101339190610b4c565b610257565b005b610154600480360381019061014f9190610bb4565b610316565b6040516101619190610bdf565b60405180910390f35b610184600480360381019061017f9190610bf8565b610336565b005b6101a0600480360381019061019b9190610bf8565b6105ca565b005b6101bc60048036038101906101b79190610c36565b6107d1565b005b6003602052815f5260405f20602052805f5260405f205f91509150505481565b6001602052805f5260405f205f91509050805f015490806001015f9054906101000a900473ffffffffffffffffffffffffffffffffffffffff16905082565b610225610853565b61022e5f6108d1565b565b5f805f9054906101000a900473ffffffffffffffffffffffffffffffffffffffff16905090565b61025f610853565b60405180604001604052808381526020018273ffffffffffffffffffffffffffffffffffffffff1681525060015f8481526020019081526020015f205f820151815f01556020820151816001015f6101000a81548173ffffffffffffffffffffffffffffffffffffffff021916908373ffffffffffffffffffffffffffffffffffffffff160217905550905050600282908060018154018082558091505060019003905f5260205f20015f90919091909150555050565b60028181548110610325575f80fd5b905f5260205f20015f915090505481565b805f73ffffffffffffffffffffffffffffffffffffffff1660015f8381526020019081526020015f206001015f9054906101000a900473ffffffffffffffffffffffffffffffffffffffff1673ffffffffffffffffffffffffffffffffffffffff16036103d8576040517f08c379a00000000000000000000000000000000000000000000000000000000081526004016103cf90610cbb565b60405180910390fd5b8260035f3373ffffffffffffffffffffffffffffffffffffffff1673ffffffffffffffffffffffffffffffffffffffff1681526020019081526020015f205f8481526020019081526020015f20541015610467576040517f08c379a000000000000000000000000000000000000000000000000000000000815260040161045e90610d23565b60405180910390fd5b6104c68360035f3373ffffffffffffffffffffffffffffffffffffffff1673ffffffffffffffffffffffffffffffffffffffff1681526020019081526020015f205f8581526020019081526020015f205461099290919063ffffffff16565b60035f3373ffffffffffffffffffffffffffffffffffffffff1673ffffffffffffffffffffffffffffffffffffffff1681526020019081526020015f205f8481526020019081526020015f208190555060015f8381526020019081526020015f206001015f9054906101000a900473ffffffffffffffffffffffffffffffffffffffff1673ffffffffffffffffffffffffffffffffffffffff1663a9059cbb33856040518363ffffffff1660e01b8152600401610584929190610d41565b6020604051808303815f875af11580156105a0573d5f803e3d5ffd5b505050506040513d601f19601f820116820180604052508101906105c49190610d9d565b50505050565b805f73ffffffffffffffffffffffffffffffffffffffff1660015f8381526020019081526020015f206001015f9054906101000a900473ffffffffffffffffffffffffffffffffffffffff1673ffffffffffffffffffffffffffffffffffffffff160361066c576040517f08c379a000000000000000000000000000000000000000000000000000000000815260040161066390610cbb565b60405180910390fd5b60015f8381526020019081526020015f206001015f9054906101000a900473ffffffffffffffffffffffffffffffffffffffff1673ffffffffffffffffffffffffffffffffffffffff166323b872dd3330866040518463ffffffff1660e01b81526004016106dc93929190610dc8565b6020604051808303815f875af11580156106f8573d5f803e3d5ffd5b505050506040513d601f19601f8201168201806040525081019061071c9190610d9d565b5061077c8360035f3373ffffffffffffffffffffffffffffffffffffffff1673ffffffffffffffffffffffffffffffffffffffff1681526020019081526020015f205f8581526020019081526020015f20546109a790919063ffffffff16565b60035f3373ffffffffffffffffffffffffffffffffffffffff1673ffffffffffffffffffffffffffffffffffffffff1681526020019081526020015f205f8481526020019081526020015f2081905550505050565b6107d9610853565b5f73ffffffffffffffffffffffffffffffffffffffff168173ffffffffffffffffffffffffffffffffffffffff1603610847576040517f08c379a000000000000000000000000000000000000000000000000000000000815260040161083e90610e6d565b60405180910390fd5b610850816108d1565b50565b61085b6109bc565b73ffffffffffffffffffffffffffffffffffffffff16610879610230565b73ffffffffffffffffffffffffffffffffffffffff16146108cf576040517f08c379a00000000000000000000000000000000000000000000000000000000081526004016108c690610ed5565b60405180910390fd5b565b5f805f9054906101000a900473ffffffffffffffffffffffffffffffffffffffff169050815f806101000a81548173ffffffffffffffffffffffffffffffffffffffff021916908373ffffffffffffffffffffffffffffffffffffffff1602179055508173ffffffffffffffffffffffffffffffffffffffff168173ffffffffffffffffffffffffffffffffffffffff167f8be0079c531659141344cd1fd0a4f28419497f9722a3daafe3b4186f6b6457e060405160405180910390a35050565b5f818361099f9190610f20565b905092915050565b5f81836109b49190610f53565b905092915050565b5f33905090565b5f80fd5b5f73ffffffffffffffffffffffffffffffffffffffff82169050919050565b5f6109f0826109c7565b9050919050565b610a00816109e6565b8114610a0a575f80fd5b50565b5f81359050610a1b816109f7565b92915050565b5f819050919050565b610a3381610a21565b8114610a3d575f80fd5b50565b5f81359050610a4e81610a2a565b92915050565b5f8060408385031215610a6a57610a696109c3565b5b5f610a7785828601610a0d565b9250506020610a8885828601610a40565b9150509250929050565b5f819050919050565b610aa481610a92565b82525050565b5f602082019050610abd5f830184610a9b565b92915050565b5f60208284031215610ad857610ad76109c3565b5b5f610ae584828501610a40565b91505092915050565b610af781610a21565b82525050565b610b06816109e6565b82525050565b5f604082019050610b1f5f830185610aee565b610b2c6020830184610afd565b9392505050565b5f602082019050610b465f830184610afd565b92915050565b5f8060408385031215610b6257610b616109c3565b5b5f610b6f85828601610a40565b9250506020610b8085828601610a0d565b9150509250929050565b610b9381610a92565b8114610b9d575f80fd5b50565b5f81359050610bae81610b8a565b92915050565b5f60208284031215610bc957610bc86109c3565b5b5f610bd684828501610ba0565b91505092915050565b5f602082019050610bf25f830184610aee565b92915050565b5f8060408385031215610c0e57610c0d6109c3565b5b5f610c1b85828601610ba0565b9250506020610c2c85828601610a40565b9150509250929050565b5f60208284031215610c4b57610c4a6109c3565b5b5f610c5884828501610a0d565b91505092915050565b5f82825260208201905092915050565b7f546f6b656e20646f6573206e6f742065786973740000000000000000000000005f82015250565b5f610ca5601483610c61565b9150610cb082610c71565b602082019050919050565b5f6020820190508181035f830152610cd281610c99565b9050919050565b7f42616c616e6365206e6f742073756666696369656e74000000000000000000005f82015250565b5f610d0d601683610c61565b9150610d1882610cd9565b602082019050919050565b5f6020820190508181035f830152610d3a81610d01565b9050919050565b5f604082019050610d545f830185610afd565b610d616020830184610a9b565b9392505050565b5f8115159050919050565b610d7c81610d68565b8114610d86575f80fd5b50565b5f81519050610d9781610d73565b92915050565b5f60208284031215610db257610db16109c3565b5b5f610dbf84828501610d89565b91505092915050565b5f606082019050610ddb5f830186610afd565b610de86020830185610afd565b610df56040830184610a9b565b949350505050565b7f4f776e61626c653a206e6577206f776e657220697320746865207a65726f20615f8201527f6464726573730000000000000000000000000000000000000000000000000000602082015250565b5f610e57602683610c61565b9150610e6282610dfd565b604082019050919050565b5f6020820190508181035f830152610e8481610e4b565b9050919050565b7f4f776e61626c653a2063616c6c6572206973206e6f7420746865206f776e65725f82015250565b5f610ebf602083610c61565b9150610eca82610e8b565b602082019050919050565b5f6020820190508181035f830152610eec81610eb3565b9050919050565b7f4e487b71000000000000000000000000000000000000000000000000000000005f52601160045260245ffd5b5f610f2a82610a92565b9150610f3583610a92565b9250828203905081811115610f4d57610f4c610ef3565b5b92915050565b5f610f5d82610a92565b9150610f6883610a92565b9250828201905080821115610f8057610f7f610ef3565b5b9291505056fea264697066735822122049cbc607111b4657dba5de973664389780fc7acdc5fc83df0e782d3d2476b38264736f6c63430008140033",
  "immutableReferences": {},
  "source": "// SPDX-License-Identifier: MIT\r\npragma solidity >=0.6.0 <0.9.0;\r\n\r\nimport \"../node_modules/@openzeppelin/contracts/token/ERC20/IERC20.sol\";\r\nimport \"..//node_modules/@openzeppelin/contracts/utils/math/SafeMath.sol\";\r\nimport \"..//node_modules/@openzeppelin/contracts/access/Ownable.sol\";\r\n\r\ncontract Wallet is Ownable{\r\n\r\n    using SafeMath for uint256; \r\n\r\n    struct Token{\r\n        bytes32 ticker;\r\n        address tokenAddress;\r\n    }\r\n\r\n    modifier tokenExist(bytes32 ticker){\r\n        require(tokenMapping[ticker].tokenAddress != address(0), \"Token does not exist\"); // postoji li token uopce\r\n        _;\r\n    }\r\n\r\n    // storage -> combine structure between array and mapping\r\n    mapping(bytes32 => Token) public tokenMapping;\r\n    bytes32[] public tokenList;\r\n\r\n     // bytes32 je thicker (tokenID) like BNB, BTC i pointa to amount, zbog compareanja tickera, jer je se sa stringovima ne moze\r\n    mapping(address => mapping(bytes32 => uint256)) public balances; // mapping that supports multiple balances\r\n                                                                   \r\n    function addToken(bytes32 ticker, address tokenAddress) onlyOwner external {\r\n        tokenMapping[ticker] = Token(ticker, tokenAddress);\r\n        tokenList.push(ticker);\r\n        // bytes32(\"LINK\") -> getting bytes32 value of a string\r\n    }\r\n\r\n    function deposit(uint amount, bytes32 ticker) external tokenExist(ticker) {\r\n        IERC20(tokenMapping[ticker].tokenAddress).transferFrom(msg.sender, address(this), amount);\r\n        balances[msg.sender][ticker] = balances[msg.sender][ticker].add(amount);\r\n    }\r\n\r\n    function withdraw(uint amount, bytes32 ticker) external tokenExist(ticker) {\r\n        require(balances[msg.sender][ticker] >= amount, \"Balance not sufficient\");\r\n        \r\n        balances[msg.sender][ticker] = balances[msg.sender][ticker].sub(amount);\r\n        IERC20(tokenMapping[ticker].tokenAddress).transfer(msg.sender, amount); // transfer from this contract to msg.sender\r\n    }\r\n\r\n\r\n    \r\n}",
  "sourcePath": "C:\\Users\\lane\\Desktop\\dex\\contracts\\wallet.sol",
  "compiler": {
    "name": "solc",
    "version": "0.8.20+commit.a1b79de6.Emscripten.clang"
  },
  "schemaVersion": "3.4.14",
  "updatedAt": "2023-06-03T16:43:33.973Z",
  "networkType": "ethereum",
  "devdoc": {
    "kind": "dev",
    "methods": {
      "owner()": {
        "details": "Returns the address of the current owner."
      },
      "renounceOwnership()": {
        "details": "Leaves the contract without owner. It will not be possible to call `onlyOwner` functions. Can only be called by the current owner. NOTE: Renouncing ownership will leave the contract without an owner, thereby disabling any functionality that is only available to the owner."
      },
      "transferOwnership(address)": {
        "details": "Transfers ownership of the contract to a new account (`newOwner`). Can only be called by the current owner."
      }
    },
    "version": 1
  },
  "userdoc": {
    "kind": "user",
    "methods": {},
    "version": 1
  }
}